:020000040800F2
:1000000028040020450100084D0100084F010008A8
:1000100051010008530100085501000800000000CC
:100020000000000000000000000000005701000870
:1000300059010008000000005B0100085D01000894
:100040005F0100085F0100085F0100085F01000810
:100050005F0100085F0100088D0100085F010008D2
:100060005F0100085F0100085F0100085F010008F0
:100070005F0100085F0100085F0100085F010008E0
:100080005F0100085F0100085F0100085F010008D0
:100090005F0100085F0100085F0100085F010008C0
:1000A0005F0100085F0100085F0100085F010008B0
:1000B0005F0100085F0100085F0100085F010008A0
:1000C0005F0100085F0100085F0100085F01000890
:1000D0005F0100085F0100085F0100085F01000880
:1000E000A50100085F0100085F0100085F0100082A
:1000F0005F0100085F0100085F0100085F01000860
:100100005F0100085F0100085F0100085F0100084F
:100110005F0100085F0100085F0100085F0100083F
:100120005F0100085F0100085F0100085F0100082F
:10013000DFF80CD000F018F800480047BD060008B2
:10014000280400200648804706480047FEE7FEE7EF
:10015000FEE7FEE7FEE7FEE7FEE7FEE7FEE7FEE777
:10016000F101000831010008064C074D06E0E06887
:1001700040F0010394E8070098471034AC42F6D3EE
:10018000FFF7DAFFE40800080409000810B50120B1
:1001900000F07AF928B1002000F0FCF8012000F00E
:1001A0006DF910BD10B54FF4005000F06DF930B18D
:1001B000012000F0EFF84FF4005000F05FF94FF429
:1001C000804000F061F930B1002000F0CDF84FF42C
:1001D000804000F053F94FF4004000F055F930B181
:1001E000012000F0C1F84FF4004000F047F910BDC5
:1001F00008B52648006840F4700024490860244887
:10020000006840F001002249086000BF20480068F3
:1002100000F002000028F9D000BF1D48406840F0FF
:1002200080001B4948600020009002E00098401CBC
:10023000009000985028F9D31548406840F090008D
:10024000134948600020009002E00098401C009094
:1002500000985028F9D300BF0D48406820F00300F3
:100260000B494860084600680A4908400849086088
:100270004FF41F0088600846006820F48020086062
:1002800000204860C86200F029FB08BD88ED00E04E
:1002900000100240FFFFF6FE02E008C8121F08C16E
:1002A000002AFAD170477047002001E001C1121FF7
:1002B000002AFBD1704700000C48006820F08070D5
:1002C0000A4908600846006840F0807008600848E5
:1002D000006820F00100064908600846006840F008
:1002E000010008600020486070470000FCED00E05D
:1002F000001000E010B500F009F800F001F810BDA2
:1003000010B500F0BFF900F079F910BD10B5002468
:1003100024E004EB4401134A32F8210000F040FAD3
:1003200004EB44010F4A02EB81018B6804EB4401AA
:1003300002EB810101224868102100F001F904EB71
:100340004402084B03EB8202916804EB440203EB86
:100350008202506800F0A4F8601CC4B2032CD8D309
:1003600010BD00000000002010B50446032C00D989
:1003700010BD04EB4402064B03EB8202916804EBD0
:10038000440203EB8202506800F08AF800BFEFE7F6
:100390000000002010B50446032C00D910BD04EB6A
:1003A0004402064B03EB8202916804EB440203EB28
:1003B0008202506800F076F800BFEFE700000020EE
:1003C00010B52D4B1B6883432B4C2360231D1B68EA
:1003D0008343241D2360231D1B688343241D236046
:1003E000231D1B688343241D236011B101290ED1F5
:1003F00005E0214B1B6803431F4C236008E01E4BA4
:100400001B1D1B6803431C4C241D236000E000BF20
:1004100000BF32B1012A11D0022A1CD0032A27D1F1
:1004200027E0154B08331B680343134C0834236043
:10043000231D1B688343241D23601BE00E4B0833E0
:100440001B6883430C4C08342360231D1B68034343
:10045000241D23600EE0084B08331B680343064C41
:1004600008342360231D1B680343241D236001E01F
:1004700000BF00BF00BF10BD00040140014908607B
:100480007047000014040140014604480068084019
:1004900008B1012070470020FCE70000140401406F
:1004A000416170470161704710B500228B071C0F36
:1004B0000F2303FA04F204290EDA204B9B689343BE
:1004C0001E4CA36023469B688C07240F00FA04F49B
:1004D00023431A4CA3602FE008290EDA174BDB6880
:1004E0009343164CE3602346DB688C07240F00FA25
:1004F00004F42343114CE3601EE00C290EDA0F4B89
:100500001B6993430D4C236123461B698C07240F01
:1005100000FA04F42343094C23610DE0074B5B69A7
:100520009343064C636123465B698C07240F00FAF2
:1005300004F42343014C636110BD0000000001403E
:10054000F0B5044616460025002201F00F0501F023
:10055000100747B1042E05D145F00305E76B1F4393
:10056000E76300E0354300201EE0012787401F407D
:10057000C7B122684FEA800C0F2707FA0CF7BA437D
:10058000870005FA07F73A43282904D10127874055
:100590001F40676105E0482903D1012787401F40BC
:1005A00027612260471CB8B20828DED3082022E069
:1005B000012787401F40E7B16268A0F108074FEAB2
:1005C000870C0F2707FA0CF7BA43A0F10807BF0002
:1005D00005FA07F73A43282904D1012787401F402D
:1005E000676105E0482903D1012787401F40276143
:1005F0006260471CB8B21028DAD3F0BD10B54FF4D2
:10060000C06000F0CDF800210846FFF74DFF0D2136
:100610000620FFF749FF0E210620FFF745FF0F21B7
:100620000620FFF741FF012200211046FFF7C8FE18
:10063000012200215003FFF7C3FE01220021900395
:10064000FFF7BEFE01220021D003FFF7B9FE012013
:10065000FFF714FF4FF40050FFF710FF4FF48040F6
:10066000FFF70CFF4FF40040FFF708FF012211468F
:10067000062000F029F801221146282000F024F875
:1006800010BD000010B540F2026000F089F80123AF
:100690001A4648210748FFF753FF4FF4C16000F0A6
:1006A0007FF84FF46043012248210348FFF748FFD9
:1006B00010BD0000000801400020014000F080F85B
:1006C000FFF718FE00BFFEE72DE9F04103460D4697
:1006D000164600240027A0462A48006800F4E0607F
:1006E000B0F5E06F03D100BF4FF0040830E02548BB
:1006F000006800F4E060B0F5C06F03D101274FF04F
:10070000030825E01F48006800F4E060B0F5A06F22
:1007100002D10227B8461BE01A48006800F4E060E6
:10072000B0F5806F03D103274FF0010810E01548A2
:10073000006800F4E060B0F5407F03D104274FF07B
:10074000000805E04FF4A06000F020F80227B8464A
:10075000C7F1040005FA00F4C8F104010F20C840F5
:100760003040044324010848C45403F01F01012011
:1007700088405911890001F1E021C1F80001BDE86C
:10078000F08100000CED00E000E400E002490143CC
:10079000024A1160704700000000FA050CED00E00D
:1007A000064A02EB9011096800F01F0301229A40EB
:1007B0001143024B03EB901211607047001002408E
:1007C00010B5FFF779FD10BD002000213F4A1268E7
:1007D00042F480323D4B1A6000BF401C3B4A126815
:1007E00002F4003119B94FF6FF729042F5D1374A41
:1007F000126802F400320AB900BFFEE7334AD26938
:1008000042F08052314BDA61314A126842F4404280
:100810002F4B1A602D4A52682C4B5A601A46526868
:100820005A601A46526842F480625A601A46526808
:1008300022F440325A601A46526842F440325A60FA
:100840001A465268234B1A40204B5A601A46526887
:10085000214B1A431D4B5A601A46126842F08072AF
:100860001A6000BF194A126802F00072002AF9D01B
:10087000174A126842F48032154B1A6000BF144ABE
:10088000526802F48032002AF9D0114A126842F408
:1008900000320F4B1A6000BF0D4A526802F400325A
:1008A000002AF9D0094A526822F00302074B5A6025
:1008B0001A46526842F002025A6000BF034A526868
:1008C00002F00802002AF9D0704700000010024030
:1008D00000700040FFFFC3B70000340810B5FFF7F9
:1008E00073FF10BD04090008000000202400000070
:1008F00098020008280900082400002004040000D1
:10090000A8020008020600000008014000010000E3
:100910000606000000180140400000000706000025
:08092000001C01404000000032
:0400000508000131BD
:00000001FF
