:020000040800F2
:1000000018060020450100084D0100084F010008B6
:1000100051010008530100085501000800000000CC
:100020000000000000000000000000005701000870
:1000300059010008000000005B0100081D040008D1
:100040005F0100085F0100085F0100085F01000810
:100050005F0100085F0100085F0100085F01000800
:100060005F0100085F0100085F0100085F010008F0
:100070005F0100085F0100085F0100085F010008E0
:100080005F0100085F0100085F0100085F010008D0
:100090005F0100085F0100085F0100085F010008C0
:1000A0005F0100085F0100085F0100085F010008B0
:1000B000ED0400085F0100085F0100085F0100080F
:1000C0005F0100085F0100085F0100085F01000890
:1000D0005F010008350500085F0100085F010008A6
:1000E0005F0100085F0100085F0100085F01000870
:1000F0005F0100085F0100085F0100085F01000860
:100100005F0100085F0100085F0100085F0100084F
:100110005F0100085F0100085F0100085F0100083F
:100120005F0100085F0100085F0100085F0100082F
:10013000DFF80CD000F0F2F800480047F112000898
:10014000180600200648804706480047FEE7FEE7FD
:10015000FEE7FEE7FEE7FEE7FEE7FEE7FEE7FEE777
:100160004504000831010008014610B509683C2229
:10017000B1FBF2F302FB1313B1FBF2F11D48036074
:10018000B1FBF2F302FB1313B1FBF2F1182243604F
:10019000B1FBF2F302FB1313B1FBF2F183600A1D12
:1001A0000723B2FBF3F403FB142282618A0040F2BE
:1001B000B55102F66C32B2FBF1F344334361B2FB4A
:1001C000F1F301FB13218908C1613B2903D3027DAF
:1001D000920700D0491C0022074C13460261E25CE2
:1001E0008A4203D8891A5B1C0361F8E7491CC16085
:1001F00010BD0000D001002000250008F0B52A4BFA
:100200002A4C85B00021826902EB42020A44491C53
:10021000A25C03F8012B0329F5DB244C4FF0200CE2
:10022000002103F801CB1534026902EB42020A44B3
:10023000491CA25C03F8012B0329F5DBC16800917E
:10024000816801914168029101680391406918A297
:1002500000F26C706C460A27049017E003F8010B5B
:1002600012F8010F08B1022500E0042502CC28464F
:1002700007E091FBF7F607FB161691FBF7F1303616
:100280001E54061EA0F10100F3DC2B441078002858
:10029000E4D11F7058700448017A302901D180F8E8
:1002A00008C005B00048F0BDFC0100200C25000886
:1002B00020203A3A200000002DE9F05F054600209A
:1002C00092469B4688460646814640241BE02846C7
:1002D00041464746224600F042F853465A46C01A65
:1002E000914110D311461846224600F029F82D1AE4
:1002F00067EB01084F4622460120002100F020F85C
:1003000017EB00094E41201EA4F10104DFDC484632
:1003100031462A464346BDE8F09F0000064C074D93
:1003200006E0E06840F0010394E8070098471034C5
:10033000AC42F6D3FFF700FF482500086825000807
:10034000202A04DB203A00FA02F100207047914095
:10035000C2F1200320FA03F3194390407047202A8A
:1003600004DB203A21FA02F00021704721FA02F35F
:10037000D040C2F120029140084319467047000066
:1003800010B540F2026001F047F94FF48073042287
:100390001821024800F01CFE10BD000000080140BA
:1003A00010B540F2026001F037F901230422114632
:1003B000014800F00DFE10BD00080140C1608260E0
:1003C000002303604360704710B50246D2E9000382
:1003D000984201D1032010BD1368D068C05C08703A
:1003E0001068401C9368B0FBF3F403FB140010602A
:1003F0000020F0E730B502465068401C9468B0FB1E
:10040000F4F504FB15031068984201D1022030BDB9
:100410005468D068015553600020F8E710B50748CC
:1004200002684068521C40F1000004490A604860BC
:100430000348046804B1A04710BD0000000000207C
:100440000800002008B52648006840F470002449E0
:1004500008602448006840F001002249086000BF9D
:100460002048006800F002000028F9D000BF1D48B5
:10047000406840F080001B4948600020009002E086
:100480000098401C009000985028F9D31548406807
:1004900040F09000134948600020009002E000986E
:1004A000401C009000985028F9D300BF0D484068C8
:1004B00020F003000B494860084600680A490840DC
:1004C000084908604FF41F0088600846006820F45F
:1004D0008020086000204860C86201F09BF908BDD8
:1004E00088ED00E000100240FFFFF6FE10B502218B
:1004F000480701F0B5FD012816D10021800701F061
:10050000DBF9401C094908600121880701F0D4F992
:10051000401C0749086000214FF0804001F081FB3A
:100520000221480701F099FD10BD00005C00002089
:100530006000002010B50C4908680C4901F062FF0A
:1005400088B10949086801F0E1FEC4B208480068B2
:1005500018B12046064909688847034908680349D5
:1005600001F047FF00BF10BDE824000805030500A7
:10057000580000200FB4054B10B503A9044A029897
:1005800000F018F810BC5DF814FB0000B90F00086B
:100590006400002002E008C8121F08C1002AFAD136
:1005A00070477047002001E001C1121F002AFBD1F3
:1005B000704700002DE9FF4F8DB00F46054600261D
:1005C00006E025280BD0DDE90F1290476D1C761C44
:1005D00028780028F5D111B03046BDE8F08F00240E
:1005E000A246A1460122EC4900E0044315F8013F70
:1005F000203B02FA03F00842F7D128782A2810D0CD
:100600006FF02F022878A0F13001092914D80AEBE5
:100610008A0102EB410144F0020400EB010A6D1C67
:10062000F0E701CF5FEA000A03D544F40054CAF1B1
:10063000000A44F002046D1C28782E2817D115F802
:10064000010F44F004042A280ED06FF02F022878FE
:10065000A0F1300109290AD809EB890102EB410117
:1006600000EB01096D1CF2E757F8049B6D1C28781C
:100670006C280FD006DC4C2817D068280DD06A28CB
:1006800014D104E0742810D07A280FD10DE044F47E
:1006900000140AE044F4801401E044F44014697842
:1006A000814202D104F580146D1C6D1C2A786E2ADB
:1006B0001FD00CDC632A31D004DC002A8BD0582AEE
:1006C00011D1A3E0642A68D0692A0CD165E0732AAD
:1006D0002ED004DC6F2A73D0702A04D19BE0752AD7
:1006E0006FD0782A6ED01046DDE90F129047761C45
:1006F00050E1C4F30250022806D0032809D0042890
:1007000001CF09D0066045E101CFF117C0E90061D2
:1007100040E101CF06803DE106703BE117F8040B94
:100720008DF8000000208DF80100EB46012003E069
:1007300057F804BB4FF0FF3061074FF0000102D4BF
:100740000DE008F10101884649450FDA8045F8DBE4
:100750001BF808100029F4D108E008F101018846CF
:100760008142FADB1BF808100029F6D1DDE90F23DE
:10077000AAEB08008146214600F036F9304400EB30
:10078000080604E0DDE90F121BF8010B9047B8F1F1
:100790000108F7D221464846F7E00A21C4F3025384
:1007A0004FF0000B0891022B04D001CFC117032B8F
:1007B00009D00AE0FF1D27F00707F7E8020108E06B
:1007C00032E01FE020E000B2C117042B01D140B29B
:1007D000C117031E71F1000307DA4FF0000CD0EBD4
:1007E0000C006CEB01012D2302E0230504D52B2323
:1007F0008DF82430012303E0E30701D02023F7E73D
:10080000984658E00A2110E010210EE010204FF029
:10081000000B08900CE010214FF0000B44F0040492
:100820004FF00809089103E008214FF0000B0891F0
:10083000C4F30253022B04D001CF0021032B06D0B6
:1008400006E0FF1D27F00707F7E8020103E080B28A
:10085000042B00D1C0B24FF0000823072BD5702A1B
:1008600007D0DDF820C08CF0100C5CEA0B0C05D032
:100870000EE040238DF82430012308E050EA010304
:1008800006D030238DF824308DF825200223984699
:10089000DDF820C08CF0080C5CEA0B0C0BD150EAA0
:1008A000010301D1630706D530238DF824304FF0C2
:1008B0000108A9F10109582A04D038A20B9208AA0C
:1008C0000A920BE03AA2F9E75B46089AFFF7F4FCBC
:1008D0000B9B9B5C0A9A521E0A92137050EA01020B
:1008E000F2D10A98ADEB000000F1200B600702D5B1
:1008F00024F4803401E04FF00109D94502DDA9EB71
:100900000B0000E0002000EB0B0141440890AAEB33
:10091000010AE00306D4DDE90F232146504600F02A
:1009200063F806444FF0000908E009A911F809002E
:10093000DDE90F12904709F10109761CC145F4DB8E
:10094000E0030CD5DDE90F232146504600F04CF8BA
:10095000064404E0DDE90F1230209047761C089928
:10096000481E08900029F5DC08E00A980A990078EA
:10097000491C0A91DDE90F129047761CBBF100017A
:10098000ABF1010BF1DC21465046DDE90F2300F00D
:1009900019F806446D1C1BE609280100303132337A
:1009A00034353637383961626364656600000000AB
:1009B0003031323334353637383941424344454695
:1009C000000000002DE9F041044600251E461746B0
:1009D000880404D405E039462020B0476D1C641E0D
:1009E000F9D52846BDE8F0812DE9F04104460025FF
:1009F0001E469046C80301D5302700E02027880412
:100A000004D505E041463846B0476D1C641EF9D553
:100A10002846BDE8F08110B500F020F910BD0000B7
:100A200010B500F03DFA044604B910BD532C36D081
:100A30000EDC042C27D006DC012C18D0022C1AD096
:100A4000032C48D11BE0512C21D0522C43D122E061
:100A5000832C34D006DC542C25D0812C27D0822C3A
:100A600039D128E0842C2ED0FF2C34D12FE01EA0C9
:100A7000FFF780FD34E023A0FFF77CFD30E028A0E5
:100A8000FFF778FD2CE02DA0FFF774FD28E032A0E1
:100A9000FFF770FD24E037A0FFF76CFD20E03CA0DD
:100AA000FFF768FD1CE041A0FFF764FD18E046A0D9
:100AB000FFF760FD14E04AA0FFF75CFD10E04EA0D8
:100AC000FFF758FD0CE052A0FFF754FD08E056A0D8
:100AD000FFF750FD04E0214658A0FFF74BFD00BF93
:100AE00000BF00BFA1E700005B4B45595D204B45AF
:100AF00059312053484F52542050524553530D0AF8
:100B0000000000005B4B45595D204B455932205396
:100B1000484F52542050524553530D0A00000000D4
:100B20005B4B45595D204B4559332053484F525438
:100B30002050524553530D0A000000005B4B4559AD
:100B40005D204B4559342053484F52542050524554
:100B500053530D0A000000005B4B45595D204B4587
:100B6000593120444F55424C452050524553530D66
:100B70000A0000005B4B45595D204B45593220442B
:100B80004F55424C452050524553530D0A0000002A
:100B90005B4B45595D204B45593320444F55424CE2
:100BA000452050524553530D0A0000005B4B4559F8
:100BB0005D204B45593420444F55424C45205052FE
:100BC0004553530D0A0000005B4B45595D204B45D2
:100BD0005931204C4F4E472050524553530D0A0077
:100BE0005B4B45595D204B455932204C4F4E4720B9
:100BF00050524553530D0A005B4B45595D204B4500
:100C00005933204C4F4E472050524553530D0A0044
:100C10005B4B45595D204B455934204C4F4E472086
:100C200050524553530D0A005B4B45595D204552C8
:100C3000524F522050524553530D0A005B4B4559B9
:100C40005D20554E4B4E4F574E2056414C55453A20
:100C5000203078253032580D0A00000010B50448C5
:100C600001F0A2FA4D2203490348FFF7A7FB10BD8C
:100C7000AD14000878000020680000202DE9FC4138
:100C800000200190B3E05E48007830B1012812D016
:100C9000022832D003287DD152E09DF80400552867
:100CA00008D19DF804005749087001205649087082
:100CB000534908709AE09DF80400AA2809D19DF8CC
:100CC00004005049487002204F4908704C49087090
:100CD00012E09DF80400552809D19DF80400494907
:100CE00008700120484908704549087004E0002058
:100CF000434908704449087078E09DF8040043496E
:100D0000087008460078012804DB08460078001DBA
:100D10000B2805DD00203A4908703B49087065E062
:100D20003A480078374988700320374908703748B7
:100D30000078401C3649087003203149087055E09E
:100D40009DF80410304802780078401C2E4B187033
:100D50002C4881542E480078401EC0B22C4908709F
:100D600000283CD129480078001DC5B227480078EA
:100D7000C01CC1B2234800F055F80646214923485B
:100D80000078C01C0F5CBE4223D10846C0780628FC
:100D900011D100E024E01D48007803280BDB084651
:100DA00000798DF80000084640798DF8010068460A
:100DB00000F046F800BF002406E01248015D15A0CF
:100DC000FFF7D8FB601CC4B2AC42F6DB13A0FFF700
:100DD000D1FB00200A4908700B49087000BF05E0EC
:100DE0000020074908700849087000BF00BF01A92A
:100DF0000B48FFF7E9FA00283FF445AFBDE8FC8156
:100E000050000020C50000205100002052000020AA
:100E10005300002025303278200000000A00000036
:100E20006800002010B502460023002003E0145C97
:100E30006340441CE0B28842F9DB184610BD70479D
:100E400010B50446607818B1207800F091F802E0FF
:100E5000207800F077F810BD0C48006820F0807012
:100E60000A4908600846006840F080700860084839
:100E7000006820F00100064908600846006840F05C
:100E8000010008600020486070470000FCED00E0B1
:100E9000001000E010B5FFF783FA01F045F910BD2E
:100EA00070B50025002407E0204600F017F905463C
:100EB00005B103E0601CC4B2042CF5D300BF284682
:100EC00070BD10B500F010F800F009F84FF4E130F3
:100ED00000F06AF800F062F8FFF7DCFF10BD10B513
:100EE00000F0DCF810BD000010B5002424E004EB95
:100EF0004401134A32F8210000F08EFB04EB440158
:100F00000F4A02EB81018B6804EB440102EB810183
:100F100001224868102100F05BF804EB4402084B02
:100F200003EB8202916804EB440203EB82025068F7
:100F300000F04AF8601CC4B2032CD8D310BD0000E6
:100F40009424000810B50446032C00D910BD04EB0E
:100F50004402064B03EB8202916804EB440203EB6C
:100F60008202506800F030F800BFEFE794240008D8
:100F700010B50446032C00D910BD04EB4402064B07
:100F800003EB8202916804EB440203EB8202506897
:100F900000F01CF800BFEFE79424000810B5FFF73D
:100FA000EFF901F081F810BD10B5044601F002F927
:100FB000204601F015F910BD70B504460D46E0B2AB
:100FC00001F04AF9204670BD4161704701617047E8
:100FD000F0B5044616460025002201F00F0501F089
:100FE000100747B1042E05D145F00305E76B1F43F9
:100FF000E76300E0354300201EE0012787401F40E3
:10100000C7B122684FEA800C0F2707FA0CF7BA43E2
:10101000870005FA07F73A43282904D101278740BA
:101020001F40676105E0482903D1012787401F4021
:1010300027612260471CB8B20828DED3082022E0CE
:10104000012787401F40E7B16268A0F108074FEA17
:10105000870C0F2707FA0CF7BA43A0F10807BF0067
:1010600005FA07F73A43282904D1012787401F4092
:10107000676105E0482903D1012787401F402761A8
:101080006260471CB8B21028DAD3F0BD02469068FF
:10109000084008B1012070470020FCE710B500248B
:1010A00017E004EB44010C4A32F8210000F0B4FAD6
:1010B00004EB4401084A02EB81018B6804EB440114
:1010C00002EB8101022248684821FFF781FF601C82
:1010D000C4B2042CE5D310BDB82400082DE9F041BA
:1010E0000446042C02D3FF20BDE8F08104EB440247
:1010F0007D4B03EB8202916804EB440203EB820216
:101100005068FFF7C3FF08B9012000E00020074640
:1011100000F0BEFA05460E4604EB4400734911F890
:10112000300030B1012834D0022857D0032877D1BD
:10113000B9E004EB44006D4901EBC00040780128A0
:1011400018D104EB440001EBC001D1E904012A1AD3
:1011500066EB01004FF4967300219A1A814109D27F
:10116000002004EB4401614A02EBC1014870601C9D
:10117000C0B2B9E767B104EB44005C4901EBC000C1
:10118000C0E90256012004EB4401584A02F831003C
:10119000A6E0E7B104EB4400544901EBC001D1E9FA
:1011A00002012B1A66EB010014229A1A70F100005A
:1011B00013D304EB44004D4901EBC000C0E90256D3
:1011C000022004EB4401494A02F8310005E0002006
:1011D00004EB4401454A02F8310081E0E7BB0020FE
:1011E00004EB4401414A02F8310004EB440011468B
:1011F00001EBC0004078401C04EB440102EBC1014C
:10120000487004EB4400114601EBC000407801280F
:1012100007D104EB440001EBC000C0E9045641E0F3
:1012200052E004EB4400314901EBC000D0E9041066
:101230006A1A66EB00004FF4967300219A1A8141F6
:101240000BD3002004EB4401284A02EBC101487093
:1012500004F15100C0B247E70EE0012004EB440165
:10126000224A02EBC101487004EB4400114601EB35
:10127000C000C0E9045615E004EB44001B4901EB33
:10128000C001D1E902012A1A66EB01004FF448714E
:10129000511A70F1000005D3032004EB4401134AF6
:1012A00002F831001CE077B9002004EB44010F4A3A
:1012B00002F8310004EB440102EBC101487004F173
:1012C0008100C0B210E70BE0002004EB4401074AA4
:1012D00002F8310004EB440102EBC101487000BF89
:1012E00000BF002000E70000B824000870010020C3
:1012F0001FB500F093FA00F0C5F9FFF7E2FDFFF724
:101300008AFB1CA0FFF736F91F480390002403A8AE
:10131000002000BF0446D4E901212068CDE9001275
:101320000290D4E90330421C606900F26C7117A08E
:10133000FFF720F903A8FEF717FF0446D4E90121BF
:101340002068CDE900120290D4E90330421C6069A4
:1013500000F26C7114A0FFF70DF92046FEF74EFF66
:101360000546294618A0FFF705F901E0FFF767FDDC
:10137000FCE70000756172745F746573745F737469
:101380006172740D0A00000000CA9A3B20676D74F8
:1013900065723A2025642D25642D25642025643A44
:1013A00025643A25640D0A00206C6F63616C7469D2
:1013B0006D653A2025642D25642D25642025643A29
:1013C00025643A25640D0A007374696E673A2573C3
:1013D0000D0A00002DE9F04103460D461646002493
:1013E0000027A0462A48006800F4E060B0F5E06FEE
:1013F00003D100BF4FF0040830E02548006800F436
:10140000E060B0F5C06F03D101274FF0030825E07D
:101410001F48006800F4E060B0F5A06F02D1022719
:10142000B8461BE01A48006800F4E060B0F5806F31
:1014300003D103274FF0010810E01548006800F4BD
:10144000E060B0F5407F03D104274FF0000805E0CD
:101450004FF4A06000F020F80227B846C7F104005E
:1014600005FA00F4C8F104010F20C84030400443DD
:1014700024010848C45403F01F0101208840591179
:10148000890001F1E021C1F80001BDE8F081000010
:101490000CED00E000E400E002490143024A116063
:1014A000704700000000FA050CED00E010B504469E
:1014B00021460248FEF79EFF10BD00006800002094
:1014C0002DE9F04F8CB0074600200A904AA090E822
:1014D000004CC068CDE905BECDF810A007900FF212
:1014E0001C1ADAE9000ACDE9020A0FF2101ADAE949
:1014F000000ACDE9000A44484068C0F381000B901F
:101500000B9820B1012804D002283FD103E03F4AC4
:101510003EE03E4A3CE03C48406800F4803CBCF57C
:10152000803F12D13848C06A00F08048B8F1000FFF
:1015300001D1364B00E0364B3348406800F40039A7
:10154000B9F5003F02D15B0800E0324B2E484068FD
:10155000C0F383412C48406800F0006008B141F0BE
:1015600010012948406800F0804008B141F0200196
:101570000F2901D2891C06E00F2903D33E2901D887
:10158000491C00E03F2103FB01F201E01F4A00BFBC
:1015900000BF1D484068C0F3031504A8465D22FA49
:1015A00006F419484068C0F3022502A8465D24FAF3
:1015B00006F0099014484068C0F3C2251DF8056084
:1015C00024FA06F0089037B1012F06D0022F06D07A
:1015D000032F0AD106E00A9208E00A9406E009986F
:1015E0000A9003E008980A9000E000BF00BF0A9844
:1015F0000CB0BDE8F08F000000000000000000000B
:1016000001020304060708090010024000127A00D4
:10161000006CDC0200093D00064A02EB90110968EB
:1016200000F01F0301229A401143024B03EB90127A
:101630001160704700100240064A02EB90110968E1
:1016400000F01F0301229A409143024B03EB9012DA
:101650001160704700100240064A02EB90110968C1
:1016600000F01F0301229A401143024B03EB90123A
:101670001160704700100240014908607047000087
:101680000800002010B5FFF7E7FB00F007F810BDD9
:1016900001490868496870470000002070B50120C2
:1016A000FFF70EFF4FF47A71B0FBF1F4601EB0F15A
:1016B000807F01D301201BE0601E4FF0E0214861D4
:1016C00048170F21002807DA0A07150E0A4A00F00A
:1016D0000F031B1FD55403E00A07130E074A1354C8
:1016E00000BF00204FF0E021886107200861002042
:1016F00008B100BFFEE770BD18ED00E000E400E0B7
:10170000002000213F4A126842F480323D4B1A60AB
:1017100000BF401C3B4A126802F4003119B94FF671
:10172000FF729042F5D1374A126802F400320AB9CA
:1017300000BFFEE7334AD26942F08052314BDA6192
:10174000314A126842F440422F4B1A602D4A5268C7
:101750002C4B5A601A4652685A601A46526842F434
:1017600080625A601A46526822F440325A601A4621
:10177000526842F440325A601A465268234B1A406B
:10178000204B5A601A465268214B1A431D4B5A602F
:101790001A46126842F080721A6000BF194A126835
:1017A00002F00072002AF9D0174A126842F480321F
:1017B000154B1A6000BF144A526802F48032002AA6
:1017C000F9D0114A126842F400320F4B1A6000BF80
:1017D0000D4A526802F40032002AF9D0094A5268D0
:1017E00022F00302074B5A601A46526842F0020286
:1017F0005A6000BF034A526802F00802002AF9D07A
:10180000704700000010024000700040FFFFC3B7A7
:101810000000340810B5FFF773FF10BD10B5024883
:10182000FFF72AFF10BD00002D18000810B500209A
:101830003DE0204901EB4012D2E904120023594057
:101840005A40114300D130E01A4901EB4011D1E96F
:1018500002210024624061400A430CD0154901EB8B
:101860004011D1E90221521E61F10001114B03EB3D
:101870004013C3E902210F4901EB4011D1E90221D4
:101880000024624061400A430ED10121094A02EB63
:1018900040121170074901EB4011D1E90421054BB9
:1018A00003EB4013C3E9022100BF411CC8B2022868
:1018B000BFDB10BD100000200246002031B101291D
:1018C00006D0022906D0032908D105E0506B06E0B6
:1018D000906B04E0D06B02E0106C00E000BF00BF32
:1018E000704731B101290CD0022913D0032922D12C
:1018F00018E0836923F00C038361836913438361D8
:101900001AE0836923F440638361836943EA022315
:10191000836111E0C36923F00C03C361C3691343FE
:10192000C36109E0C36923F44063C361C36943EA47
:101930000223C36100E000BF00BF704700210180A7
:101940000121418000218180C180704710B531B1F3
:1019500001293FD002297DD003297CD1BFE0036A51
:1019600023F001030362836923F003038361036AA5
:10197000148823430362036A23F002030362036AA9
:101980009488234303626A4B984202D0694B984281
:101990001FD1036A23F004030362036A54882343BC
:1019A0000362036A23F008030362036AD4882343B3
:1019B0000362436823F480734360436814892343BC
:1019C0004360436823F400734360436854892343AE
:1019D0004360ABE0036A23F010030362836923F4DE
:1019E00040738361036A148843EA04130362036A41
:1019F00023F020030362036A948843EA041303621A
:101A00004B4B984202D04B4B984226D1036A23F0AD
:101A100040030362036A548843EA04130362036ABF
:101A200023F080030362036AD48843EA0413036249
:101A3000436823F4806343604368148943EA840362
:101A40004360436823F4006343604368548943EA76
:101A5000840301E002E068E0436067E0036A23F486
:101A600080730362C36923F00303C361036A1488AC
:101A700043EA04230362036A23F400730362036AE4
:101A8000948843EA04230362294B984202D0294BED
:101A9000984223D1036A23F480630362036A548863
:101AA00043EA04230362036A23F400630362036AC4
:101AB000D48843EA04230362436823F480534360D9
:101AC0004368148943EA04134360436823F40053D2
:101AD00043604368548943EA0413436026E0036A81
:101AE00023F480530362C36923F44073C361036A20
:101AF000148843EA04330362036A23F40053036245
:101B0000036A948843EA04330362094B984202D083
:101B1000084B984208D1436823F4804343604368EC
:101B2000148943EA8413436000E000BF00BF10BD86
:101B3000002C01400034014031B101290CD00229B0
:101B400013D0032922D118E0836923F07003836145
:101B50008369134383611AE0836923F4E04383615B
:101B6000836943EA0223836111E0C36923F07003B0
:101B7000C361C3691343C36109E0C36923F4E0434C
:101B8000C361C36943EA0223C36100E000BF00BF31
:101B9000704731B1012906D0022906D0032908D1A6
:101BA00005E0426306E0826304E0C26302E002648F
:101BB00000E000BF00BF704731B101290CD00229FD
:101BC00013D0032922D118E0836923F0080383612D
:101BD0008369134383611AE0836923F4006383619B
:101BE000836943EA0223836111E0C36923F0080398
:101BF000C361C3691343C36109E0C36923F400638C
:101C0000C361C36943EA0223C36100E000BF00BFB0
:101C100070470021018041808180C1800181418124
:101C2000704741627047000010B504463349601A9E
:101C30008C4244D00CDCB4F1804F1CD0304820449E
:101C400010B3B0F5806F28D0B0F5006F52D12DE001
:101C5000B0F5806F3CD0B0F58E3F03D0B0F5923F29
:101C600048D13EE040F20B30FFF7F6FC40F20B307B
:101C7000FFF7E2FC3FE04FF48060FFF7EDFC4FF42C
:101C80008060FFF7D9FC36E040F20140FFF7E4FC4A
:101C900040F20140FFF7D0FC2DE040F20240FFF798
:101CA000DBFC40F20240FFF7C7FC24E040F20340B7
:101CB000FFF7D2FC40F20340FFF7BEFC1BE040F20E
:101CC0000440FFF7C9FC40F20440FFF7B5FC12E006
:101CD00040F20540FFF7C0FC40F20540FFF7ACFCC6
:101CE00009E040F20D30FFF7B7FC40F20D30FFF78E
:101CF000A3FC00E000BF00BF10BD000000100040CA
:101D000000FCFFBF016841F0010101607047000065
:101D10000A8882621D4A90420ED0B0F1804F0BD0EB
:101D20001B4A904208D01B4A904205D01A4A904262
:101D300002D01A4A90420BD1026822F0700202606F
:101D400002684B881A43026002688B881A4302605B
:101D50008A68C262124A90420AD0124A904207D060
:101D6000026822F4407202600268CB881A43026063
:101D7000064A904202D0094A904201D10A7B02638E
:101D8000426942F00102426170470000002C0140AC
:101D90000004004000080040000C004000340140F6
:101DA000001000400014004070B504460E46154671
:101DB00036B1012E26D0022E48D0032E7DD168E008
:101DC000206A20F001002062206A20F00A002062D0
:101DD000206A298808432062A06920F00300A061DE
:101DE000A06969880843A061A06920F0F000A061A3
:101DF000A069E98840EA0110A061206A40F0010072
:101E000020626DE0206A20F010002062206A20F03D
:101E1000A0002062206A298840EA01102062A0699F
:101E200020F44070A061A069698840EA0120A061A7
:101E3000A06920F47040A061A069E98840EA0130FF
:101E4000A061206A40F01000206249E0206A20F47E
:101E500080702062206A20F420602062206A298835
:101E600040EA01202062E06920F00300E061E069BF
:101E700069880843E061E06920F0F000E061E06912
:101E8000E98840EA0110E061206A40F48070206235
:101E900026E0206A20F480502062206A20F400505E
:101EA0002062206A298840EA01302062E06920F43B
:101EB0004070E061E069698800E010E040EA0120DC
:101EC000E061E06920F47040E061E069E98840EA9F
:101ED0000130E061206A40F48050206200E000BFE1
:101EE00000BFAA8831462046FFF7FBFC70BD2DE9F4
:101EF000F04104460E4615460027B846288808B922
:101F0000022700E000276888012802D14FF002086C
:101F100001E04FF00108002E4CD1206A20F00100B2
:101F20002062206A20F00A002062206A2988084383
:101F30002062A06920F00300A061A06969880843BD
:101F4000A061A06920F0F000A061A069E98840EAE2
:101F50000110A061206A40F001002062AA880021DF
:101F60002046FFF7BEFC206A20F010002062206AA5
:101F700020F0A0002062206A40EA07102062A069D9
:101F800020F44070A061A06940EA0820A061A06927
:101F900020F47040A061A069E98840EA0130A061A6
:101FA000206A40F010002062AA8801212046FFF735
:101FB00098FC4CE0206A20F010002062206A20F09B
:101FC000A0002062206A298840EA01102062A069EE
:101FD00020F44070A061A069698840EA0120A061F6
:101FE000A06920F47040A061A069E98840EA01304E
:101FF000A061206A40F010002062AA8801212046DA
:10200000FFF76FFC206A20F001002062206A20F0B8
:102010000A002062206A38432062A06920F0030091
:10202000A061A06940EA0800A061A06920F0F0006A
:10203000A061A069E98840EA0110A061206A40F02F
:1020400001002062AA8800212046FFF74AFCBDE873
:10205000F081C2680A43C2607047CA430261704798
:102060000246D06800EA01031069084010B10BB1C4
:10207000012070470020FCE7012904D1426C42F4A2
:102080000042426403E0426C22F400424264704722
:1020900000210180418081804FF6FF718160002125
:1020A000C18001737047000000B587B040F20B603B
:1020B000FFF7B2FA1B48FFF7B7FD03A8FFF7E8FFE9
:1020C0007720ADF80C0040F2F310059003A91548F5
:1020D000FFF71EFE6846FFF79CFD0120ADF80000EB
:1020E0000020ADF80400ADF808006A4600210D4854
:1020F000FFF72CFC602200210A48FFF71DFDFA22A1
:1021000000210848FFF745FD082200210548FFF798
:1021100053FD01210348FFF7AFFF0248FFF7F2FD2F
:1021200007B000BD002C014000B587B04FF4E0605F
:10213000FFF772FA4FF08040FFF776FD03A8FFF734
:10214000A7FF7720ADF80C004FF6FF70059003A9AC
:102150004FF08040FFF7DCFD01A8FFF7EFFB002008
:10216000ADF804000120ADF8060001AA00218007A7
:10217000FFF71AFE01AA00214FF08040FFF7B7FEDB
:1021800002214807FFF769FF02214807FFF761FFB7
:10219000002211461C20FFF71DF94FF08040FFF789
:1021A000B1FD07B000BD00000149086070470000A4
:1021B0005800002010B50949C888FFF72DFA0749D3
:1021C000CB68012288681821FEF702FF03490B69DA
:1021D000012288684821FEF7FBFE10BDE8240008B4
:1021E00010B504461B498888FFF716FA1949086894
:1021F00000F096F817490868002100F043F91549E6
:102200000868002100F01AF912490868002100F05E
:1022100027F910490868214600F030F80D49086890
:10222000082100F025F90B490868042100F00EF997
:102230000849086840F2053100F0CEF80549086801
:1022400000F0B6F80349087D00221146FFF7C2F8F6
:1022500010BD0000E824000810B5044606490868CF
:10226000214600F058F800BF03490868072100F034
:10227000A4F80028F8D010BDE82400082DE9F047A4
:1022800004460D460027B846B94600261D49601A87
:102290008C421CD006DC1C48204470B1B0F5806F25
:1022A0001FD10FE0B0F5806F16D0B0F56C4F18D18C
:1022B0000320FFF705F9074614E00220FFF700F9B5
:1022C00007460FE00220FFF7FBF807460AE002206E
:1022D000FFF7F6F8074605E00220FFF7F1F807469A
:1022E00000E000BF00BF07EB5500B0FBF5F64FF66E
:1022F000F07006EA000806F00F0948EA0900A0603D
:10230000BDE8F087004C004000BCFFBF01464868B4
:10231000C0F308007047C1F3080242607047000034
:1023200010B504462049601A8C4228D006DC1F48AC
:10233000204490B1B0F5806F33D117E0B0F5806FD5
:1023400026D0B0F56C4F2CD140F20E30FFF784F957
:1023500040F20E30FFF770F924E040F21140FFF731
:102360007BF940F21140FFF767F91BE040F21240A1
:10237000FFF772F940F21240FFF75EF912E040F207
:102380001340FFF769F940F21340FFF755F909E0F0
:1023900040F21440FFF760F940F21440FFF74CF9A7
:1023A00000E000BF00BF10BD004C004000BCFFBFFC
:1023B000C16841F40051C160704710B5024602EB9C
:1023C0009110006801F01F040123A340184008B1D8
:1023D000012010BD0020FCE710B500EB911212683F
:1023E00001F01F040123A3401A4300EB91131A606C
:1023F00010BDC1F3044301229A40D24300EB915334
:102400001A60704770B5024600230024C1F389109A
:10241000105801F01F060125B54000EA050302EB44
:1024200091500068C1F304460125B54000EA050457
:1024300014B10BB1012070BD0020FCE7C26822F48A
:10244000C062C260C2680A43C2607047C26822F0BC
:102450000402C260C26801F004031A43C2607047FC
:10246000026922F44052026102690A430261704724
:10247000C26822F00802C260C26801F008031A4371
:10248000C2607047C26822F48052C260C2680A43C8
:10249000C260704702060000000801400001000011
:1024A000060600000018014040000000070600007A
:1024B000001C01404000000002060000000801402E
:1024C000010000000806000000200140002000007C
:1024D000080600000020014000400000080600003F
:1024E0000020014000800000003801400E06020676
:1024F0000008014000020000000400002500000068
:102500001F1D1F1E1F1E1F1F1E1F1E1F53756E4DDA
:102510006F6E54756557656454687546726953618A
:10252000744A616E4665624D61724170724D6179A7
:102530004A756E4A756C4175675365704F63744E8A
:102540006F764465630000006825000800000020E5
:102550006800000094050008D025000868000020ED
:10256000B0050000A4050008000000000000000005
:10257000000000000000000000000000000000005B
:102580006400000000000000640000000000000083
:102590007D0C0008000000000000000000000000AA
:1025A0000500000000000000050000000000000021
:1025B000210A0008000000000000000000000000E8
:1025C000000000000000000000000000000000000B
:0400000508000131BD
:00000001FF
