:020000040800F2
:1000000070040020450100084D0100084F01000860
:1000100051010008530100085501000800000000CC
:100020000000000000000000000000005701000870
:1000300059010008000000005B0100088D01000864
:100040005F0100085F0100085F0100085F01000810
:100050005F0100085F0100085F0100085F01000800
:100060005F0100085F0100085F0100085F010008F0
:100070005F0100085F0100085F0100085F010008E0
:100080005F0100085F0100085F0100085F010008D0
:100090005F0100085F0100085F0100085F010008C0
:1000A0005F0100085F0100085F0100085F010008B0
:1000B0005F0100085F0100085F0100085F010008A0
:1000C0005F0100085F0100085F0100085F01000890
:1000D0005F0100085F0100085F0100085F01000880
:1000E0005F0100085F0100085F0100085F01000870
:1000F0005F0100085F0100085F0100085F01000860
:100100005F0100085F0100085F0100085F0100084F
:100110005F0100085F0100085F0100085F0100083F
:100120005F0100085F0100085F0100085F0100082F
:10013000DFF80CD000F018F800480047BD060008B2
:10014000700400200648804706480047FEE7FEE7A7
:10015000FEE7FEE7FEE7FEE7FEE7FEE7FEE7FEE777
:10016000A501000831010008064C074D06E0E068D3
:1001700040F0010394E8070098471034AC42F6D3EE
:10018000FFF7DAFF3C0B00085C0B0008044803682B
:1001900040685A1C40F1000001490A6048607047FD
:1001A0000000002008B52648006840F4700024498B
:1001B00008602448006840F001002249086000BF40
:1001C0002048006800F002000028F9D000BF1D4858
:1001D000406840F080001B4948600020009002E029
:1001E0000098401C009000985028F9D315484068AA
:1001F00040F09000134948600020009002E0009811
:10020000401C009000985028F9D300BF0D4840686A
:1002100020F003000B494860084600680A4908407E
:10022000084908604FF41F0088600846006820F401
:100230008020086000204860C86200F051FC08BDC2
:1002400088ED00E000100240FFFFF6FE02E008C863
:10025000121F08C1002AFAD170477047002001E040
:1002600001C1121F002AFBD1704700000C48006832
:1002700020F080700A4908600846006840F08070ED
:1002800008600848006820F0010006490860084638
:10029000006840F0010008600020486070470000DE
:1002A000FCED00E0001000E070B50025002407E040
:1002B000204600F0F9F8054605B103E0601CC4B221
:1002C000042CF5D300BF284670BD10B500F008F827
:1002D00000F001F810BD10B500F0C6F810BD000028
:1002E00010B5002424E004EB4401134A32F8210045
:1002F00000F01EFB04EB44010F4A02EB81018B6806
:1003000004EB440102EB810101224868102100F056
:1003100045F804EB4402084B03EB8202916804EBBE
:10032000440203EB8202506800F034F8601CC4B24F
:10033000032CD8D310BD0000E80A000810B504460D
:10034000032C00D910BD04EB4402064B03EB8202E0
:10035000916804EB440203EB8202506800F01AF843
:1003600000BFEFE7E80A000810B50446032C00D9E7
:1003700010BD04EB4402064B03EB8202916804EBD0
:10038000440203EB8202506800F006F800BFEFE77A
:10039000E80A00084161704701617047F0B5044602
:1003A00016460025002201F00F0501F0100747B1A5
:1003B000042E05D145F00305E76B1F43E76300E01A
:1003C000354300201EE0012787401F40C7B1226847
:1003D0004FEA800C0F2707FA0CF7BA43870005FA9B
:1003E00007F73A43282904D1012787401F40676156
:1003F00005E0482903D1012787401F40276122607B
:10040000471CB8B20828DED3082022E00127874025
:100410001F40E7B16268A0F108074FEA870C0F2779
:1004200007FA0CF7BA43A0F10807BF0005FA07F76F
:100430003A43282904D1012787401F40676105E01E
:10044000482903D1012787401F4027616260471C6C
:10045000B8B21028DAD3F0BD02469068084008B15F
:10046000012070470020FCE710B5002417E004EBE2
:1004700044010C4A32F8210000F05AFA04EB44011E
:10048000084A02EB81018B6804EB440102EB810115
:10049000022248684821FFF781FF601CC4B2042C87
:1004A000E5D310BD0C0B00082DE9F0410446042CE7
:1004B00002D3FF20BDE8F08104EB44027D4B03EB47
:1004C0008202916804EB440203EB82025068FFF75A
:1004D000C3FF08B9012000E00020074600F03EFA03
:1004E00005460E4604EB4400734911F8300030B164
:1004F000012834D0022857D0032877D1B9E004EB83
:1005000044006D4901EBC0004078012818D104EB8C
:10051000440001EBC001D1E904012A1A66EB010095
:100520004FF4967300219A1A814109D2002004EBFE
:100530004401614A02EBC1014870601CC0B2B9E7D6
:1005400067B104EB44005C4901EBC000C0E902560E
:10055000012004EB4401584A02F83100A6E0E7B15B
:1005600004EB4400544901EBC001D1E902012B1A0C
:1005700066EB010014229A1A70F1000013D304EB09
:1005800044004D4901EBC000C0E90256022004EBD3
:100590004401494A02F8310005E0002004EB44011F
:1005A000454A02F8310081E0E7BB002004EB44013A
:1005B000414A02F8310004EB4400114601EBC0004F
:1005C0004078401C04EB440102EBC101487004EB8D
:1005D0004400114601EBC0004078012807D104EB2C
:1005E000440001EBC000C0E9045641E052E004EBD6
:1005F0004400314901EBC000D0E904106A1A66EBEF
:1006000000004FF4967300219A1A81410BD3002009
:1006100004EB4401284A02EBC101487004F1510087
:10062000C0B247E70EE0012004EB4401224A02EB8E
:10063000C101487004EB4400114601EBC000C0E961
:10064000045615E004EB44001B4901EBC001D1E95D
:1006500002012A1A66EB01004FF44871511A70F139
:10066000000005D3032004EB4401134A02F83100D3
:100670001CE077B9002004EB44010F4A02F8310076
:1006800004EB440102EBC101487004F18100C0B2E7
:1006900010E70BE0002004EB4401074A02F83100A8
:1006A00004EB440102EBC101487000BF00BF002011
:1006B00000E700000C0B00081000002000F048F9D3
:1006C000FFF703FE85E0FFF7EFFD044604B980E085
:1006D000532C54D00EDC042C5BD006DC012C1CD037
:1006E000022C29D0032C71D145E0512C19D0522C69
:1006F0006CD125E0832C3AD006DC542C5DD0812CC3
:1007000007D0822C62D113E0842C4CD0FF2C5DD119
:100710005BE00020FFF728FE59E00020FFF70EFE07
:1007200055E00020FFF720FE0120FFF71DFE4EE000
:100730000120FFF703FE4AE00120FFF715FE46E027
:100740002448007880F001002249087008460078AB
:1007500030B10020FFF708FE0120FFF7EFFD05E0B4
:100760000020FFF7EBFD0120FFF7FEFD2FE0022048
:10077000FFF7FAFD2BE00220FFF7E0FD27E0002065
:10078000FFF7DCFD0120FFF7D9FD0220FFF7D6FDC2
:100790001DE00020FFF7E8FD0120FFF7E5FD022046
:1007A000FFF7E2FD13E00020FFF7C8FD0120FFF78F
:1007B000C5FD0220FFF7C2FD09E00120FFF7D4FDCF
:1007C0000220FFF7BBFD02E000E000E000BF00BF39
:1007D00000BF78E7080000202DE9F04F8CB00746F5
:1007E00000200A904AA090E8004CC068CDE905BE00
:1007F000CDF810A007900FF21C1ADAE9000ACDE933
:10080000020A0FF2101ADAE9000ACDE9000A444898
:100810004068C0F381000B900B9820B1012804D0F0
:1008200002283FD103E03F4A3EE03E4A3CE03C48DC
:10083000406800F4803CBCF5803F12D13848C06A63
:1008400000F08048B8F1000F01D1364B00E0364B84
:100850003348406800F40039B9F5003F02D15B0825
:1008600000E0324B2E484068C0F383412C4840687A
:1008700000F0006008B141F010012948406800F024
:10088000804008B141F020010F2901D2891C06E007
:100890000F2903D33E2901D8491C00E03F2103FB67
:1008A00001F201E01F4A00BF00BF1D484068C0F3CD
:1008B000031504A8465D22FA06F419484068C0F3FF
:1008C000022502A8465D24FA06F009901448406803
:1008D000C0F3C2251DF8056024FA06F0089037B170
:1008E000012F06D0022F06D0032F0AD106E00A926C
:1008F00008E00A9406E009980A9003E008980A9034
:1009000000E000BF00BF0A980CB0BDE8F08F000007
:1009100000000000000000000102030406070809AF
:100920000010024000127A00006CDC0200093D0059
:10093000064A02EB9011096800F01F0301229A4059
:100940001143024B03EB90121160704700100240FC
:1009500010B5FFF78BFC00F007F810BD01490868DF
:10096000496870470000002070B50120FFF734FF90
:100970004FF47A71B0FBF1F4601EB0F1807F01D3C7
:1009800001201BE0601E4FF0E021486148170F2155
:10099000002807DA0A07150E0A4A00F00F031B1F8A
:1009A000D55403E00A07130E074A135400BF002072
:1009B0004FF0E021886107200861002008B100BFE6
:1009C000FEE770BD18ED00E000E400E0002000212B
:1009D0003F4A126842F480323D4B1A6000BF401C0F
:1009E0003B4A126802F4003119B94FF6FF72904287
:1009F000F5D1374A126802F400320AB900BFFEE7A7
:100A0000334AD26942F08052314BDA61314A12687E
:100A100042F440422F4B1A602D4A52682C4B5A60C8
:100A20001A4652685A601A46526842F480625A6006
:100A30001A46526822F440325A601A46526842F40A
:100A400040325A601A465268234B1A40204B5A6073
:100A50001A465268214B1A431D4B5A601A461268B7
:100A600042F080721A6000BF194A126802F00072E8
:100A7000002AF9D0174A126842F48032154B1A60E6
:100A800000BF144A526802F48032002AF9D0114A99
:100A9000126842F400320F4B1A6000BF0D4A5268D0
:100AA00002F40032002AF9D0094A526822F0030207
:100AB000074B5A601A46526842F002025A6000BF61
:100AC000034A526802F00802002AF9D07047000079
:100AD0000010024000700040FFFFC3B70000340860
:100AE00010B5FFF773FF10BD0206000000080140BB
:100AF0000001000006060000001801404000000050
:100B000007060000001C0140400000000206000033
:100B1000000801400100000008060000002001401C
:100B200000200000080600000020014000400000F6
:100B30000806000000200140008000005C0B000857
:100B4000000000200C0000004C020008680B0008A8
:100B50000C000020640400005C020008000000009B
:080B600000000000000000008D
:0400000508000131BD
:00000001FF
