:020000040800F2
:1000000028040020450100084D0100084F010008A8
:1000100051010008530100085501000800000000CC
:100020000000000000000000000000005701000870
:1000300059010008000000005B0100088D01000864
:100040005F0100085F0100085F0100085F01000810
:100050005F0100085F0100085F0100085F01000800
:100060005F0100085F0100085F0100085F010008F0
:100070005F0100085F0100085F0100085F010008E0
:100080005F0100085F0100085F0100085F010008D0
:100090005F0100085F0100085F0100085F010008C0
:1000A0005F0100085F0100085F0100085F010008B0
:1000B0005F0100085F0100085F0100085F010008A0
:1000C0005F0100085F0100085F0100085F01000890
:1000D0005F0100084D0200085F0100085F01000891
:1000E0005F0100085F0100085F0100085F01000870
:1000F0005F0100085F0100085F0100085F01000860
:100100005F0100085F0100085F0100085F0100084F
:100110005F0100085F0100085F0100085F0100083F
:100120005F0100085F0100085F0100085F0100082F
:10013000DFF80CD000F018F80048004799050008D7
:10014000280400200648804706480047FEE7FEE7EF
:10015000FEE7FEE7FEE7FEE7FEE7FEE7FEE7FEE777
:10016000A501000831010008064C074D06E0E068D3
:1001700040F0010394E8070098471034AC42F6D3EE
:10018000FFF7DAFFA00D0008C00D0008044803685F
:1001900040685A1C40F1000001490A6048607047FD
:1001A0000000002008B52648006840F4700024498B
:1001B00008602448006840F001002249086000BF40
:1001C0002048006800F002000028F9D000BF1D4858
:1001D000406840F080001B4948600020009002E029
:1001E0000098401C009000985028F9D315484068AA
:1001F00040F09000134948600020009002E0009811
:10020000401C009000985028F9D300BF0D4840686A
:1002100020F003000B494860084600680A4908407E
:10022000084908604FF41F0088600846006820F401
:100230008020086000204860C86200F001FC08BD12
:1002400088ED00E000100240FFFFF6FE10B50C49FB
:1002500008680C4900F026FD88B10949086800F0DB
:10026000A5FCC4B20848006818B1204606490968D0
:10027000884703490868034900F00BFD00BF10BD23
:10028000880D0008050305000C000020014A024902
:1002900000F013B8850400081000002002E008C830
:1002A000121F08C1002AFAD170477047002001E0F0
:1002B00001C1121F002AFBD170472DE9F0411646FB
:1002C0000F460446002503E03946B047641C6D1C08
:1002D00020780028F8D12846BDE8F08110B500F05C
:1002E00001F810BD10B5024800F0AEFB10BD0000D3
:1002F000A106000810B50D48007800B910BD002017
:100300000A49087006210A4800F014F8084989795A
:10031000884200D0F2E70648C078062803D1044896
:10032000001D00F014F800BFE8E7000008000020FE
:100330001400002010B502460023002003E0145CE6
:100340006340441CE0B28842F9DB184610BD10B58A
:100350000446607818B1207800F076F802E0207842
:1003600000F05CF810BD00000C48006820F08070C0
:100370000A4908600846006840F080700860084834
:10038000006820F00100064908600846006840F057
:10039000010008600020486070470000FCED00E0AC
:1003A000001000E010B500F00BF800F005F84FF475
:1003B000E13000F05FF810BD10B500F0CDF810BDD1
:1003C00010B5002424E004EB4401134A32F8210064
:1003D00000F044FA04EB44010F4A02EB81018B6800
:1003E00004EB440102EB810101224868102100F076
:1003F00055F804EB4402084B03EB8202916804EBCE
:10040000440203EB8202506800F044F8601CC4B25E
:10041000032CD8D310BD0000340D000810B50446DD
:10042000032C00D910BD04EB4402064B03EB8202FF
:10043000916804EB440203EB8202506800F02AF852
:1004400000BFEFE7340D000810B50446032C00D9B7
:1004500010BD04EB4402064B03EB8202916804EBEF
:10046000440203EB8202506800F016F800BFEFE789
:10047000340D000810B5044600F0ECFA204600F0F8
:10048000FFFA10BD70B504460D46E0B200F034FB33
:10049000204670BD4161704701617047F0B5044668
:1004A00016460025002201F00F0501F0100747B1A4
:1004B000042E05D145F00305E76B1F43E76300E019
:1004C000354300201EE0012787401F40C7B1226846
:1004D0004FEA800C0F2707FA0CF7BA43870005FA9A
:1004E00007F73A43282904D1012787401F40676155
:1004F00005E0482903D1012787401F40276122607A
:10050000471CB8B20828DED3082022E00127874024
:100510001F40E7B16268A0F108074FEA870C0F2778
:1005200007FA0CF7BA43A0F10807BF0005FA07F76E
:100530003A43282904D1012787401F40676105E01D
:10054000482903D1012787401F4027616260471C6B
:10055000B8B21028DAD3F0BD10B5002417E004EBD0
:1005600044010C4A32F8210000F078F904EB440110
:10057000084A02EB81018B6804EB440102EB810124
:10058000022248684821FFF789FF601CC4B2042C8E
:10059000E5D310BD580D000800F090F9FFF702FFF9
:1005A000FFF79CFE03A0FFF771FE01E0FFF7A2FE3C
:1005B000FCE70000756172745F746573745F737437
:1005C0006172740D0A0000002DE9F04103460D46EA
:1005D000164600240027A0462A48006800F4E06080
:1005E000B0F5E06F03D100BF4FF0040830E02548BC
:1005F000006800F4E060B0F5C06F03D101274FF050
:10060000030825E01F48006800F4E060B0F5A06F23
:1006100002D10227B8461BE01A48006800F4E060E7
:10062000B0F5806F03D103274FF0010810E01548A3
:10063000006800F4E060B0F5407F03D104274FF07C
:10064000000805E04FF4A06000F020F80227B8464B
:10065000C7F1040005FA00F4C8F104010F20C840F6
:100660003040044324010848C45403F01F01012012
:1006700088405911890001F1E021C1F80001BDE86D
:10068000F08100000CED00E000E400E002490143CD
:10069000024A1160704700000000FA050CED00E00E
:1006A00015490A780978491C134B19701349885465
:1006B00019460978012904D002290AD0072917D13F
:1006C0000FE00E490978552902D000210A4A11701D
:1006D0000FE00A494978AA2902D00021064A117080
:1006E00007E00121064A11700021034A117000E061
:1006F00000BF00BF70470000090000201400002068
:10070000080000202DE9F04F8CB0074600200A9029
:100710004AA090E8004CC068CDE905BECDF810A015
:1007200007900FF21C1ADAE9000ACDE9020A0FF26B
:10073000101ADAE9000ACDE9000A44484068C0F31B
:1007400081000B900B9820B1012804D002283FD1E2
:1007500003E03F4A3EE03E4A3CE03C48406800F44B
:10076000803CBCF5803F12D13848C06A00F0804818
:10077000B8F1000F01D1364B00E0364B33484068EA
:1007800000F40039B9F5003F02D15B0800E0324BBC
:100790002E484068C0F383412C48406800F0006058
:1007A00008B141F010012948406800F0804008B1CC
:1007B00041F020010F2901D2891C06E00F2903D343
:1007C0003E2901D8491C00E03F2103FB01F201E072
:1007D0001F4A00BF00BF1D484068C0F3031504A8AE
:1007E000465D22FA06F419484068C0F3022502A8C3
:1007F000465D24FA06F0099014484068C0F3C2250B
:100800001DF8056024FA06F0089037B1012F06D0D4
:10081000022F06D0032F0AD106E00A9208E00A94BC
:1008200006E009980A9003E008980A9000E000BFEB
:1008300000BF0A980CB0BDE8F08F00000000000077
:10084000000000000102030406070809001002402E
:1008500000127A00006CDC0200093D00064A02EB3F
:100860009011096800F01F0301229A401143024BC6
:1008700003EB90121160704700100240064A02EB31
:100880009011096800F01F0301229A409143024B26
:1008900003EB90121160704700100240064A02EB11
:1008A0009011096800F01F0301229A401143024B86
:1008B00003EB9012116070470010024010B5FFF773
:1008C00053FD00F001F810BD70B50120FFF71AFFCD
:1008D0004FF47A71B0FBF1F4601EB0F1807F01D368
:1008E00001201BE0601E4FF0E021486148170F21F6
:1008F000002807DA0A07150E0A4A00F00F031B1F2B
:10090000D55403E00A07130E074A135400BF002012
:100910004FF0E021886107200861002008B100BF86
:10092000FEE770BD18ED00E000E400E000200021CB
:100930003F4A126842F480323D4B1A6000BF401CAF
:100940003B4A126802F4003119B94FF6FF72904227
:10095000F5D1374A126802F400320AB900BFFEE747
:10096000334AD26942F08052314BDA61314A12681F
:1009700042F440422F4B1A602D4A52682C4B5A6069
:100980001A4652685A601A46526842F480625A60A7
:100990001A46526822F440325A601A46526842F4AB
:1009A00040325A601A465268234B1A40204B5A6014
:1009B0001A465268214B1A431D4B5A601A46126858
:1009C00042F080721A6000BF194A126802F0007289
:1009D000002AF9D0174A126842F48032154B1A6087
:1009E00000BF144A526802F48032002AF9D0114A3A
:1009F000126842F400320F4B1A6000BF0D4A526871
:100A000002F40032002AF9D0094A526822F00302A7
:100A1000074B5A601A46526842F002025A6000BF01
:100A2000034A526802F00802002AF9D07047000019
:100A30000010024000700040FFFFC3B70000340800
:100A400010B5FFF773FF10BD014908607047000043
:100A50000C00002010B50949C888FFF7FFFE0749C0
:100A6000CB68012288681821FFF718FD03490B693C
:100A7000012288684821FFF711FD10BD880D00088C
:100A800010B504461B498888FFF7E8FE1949086835
:100A900000F096F817490868002100F043F915495D
:100AA0000868002100F01AF912490868002100F0D6
:100AB00027F910490868214600F030F80D49086808
:100AC000082100F025F90B490868042100F00EF90F
:100AD0000849086840F2053100F0CEF80549086879
:100AE00000F0B6F80349087D00221146FFF76CFDBF
:100AF00010BD0000880D000810B5044606490868BE
:100B0000214600F058F800BF03490868072100F0AB
:100B1000A4F80028F8D010BD880D00082DE9F04792
:100B200004460D460027B846B94600261D49601AFE
:100B30008C421CD006DC1C48204470B1B0F5806F9C
:100B40001FD10FE0B0F5806F16D0B0F56C4F18D103
:100B50000320FFF7D7FD074614E00220FFF7D2FD80
:100B600007460FE00220FFF7CDFD07460AE002200E
:100B7000FFF7C8FD074605E00220FFF7C3FD074663
:100B800000E000BF00BF07EB5500B0FBF5F64FF6E5
:100B9000F07006EA000806F00F0948EA0900A060B4
:100BA000BDE8F087004C004000BCFFBF014648682C
:100BB000C0F308007047C1F30802426070470000AC
:100BC00010B504462049601A8C4228D006DC1F4824
:100BD000204490B1B0F5806F33D117E0B0F5806F4D
:100BE00026D0B0F56C4F2CD140F20E30FFF756FEF8
:100BF00040F20E30FFF742FE24E040F21140FFF7D2
:100C00004DFE40F21140FFF739FE1BE040F212406A
:100C1000FFF744FE40F21240FFF730FE12E040F2D0
:100C20001340FFF73BFE40F21340FFF727FE09E0B9
:100C300040F21440FFF732FE40F21440FFF71EFE70
:100C400000E000BF00BF10BD004C004000BCFFBF73
:100C5000C16841F40051C160704710B5024602EB13
:100C60009110006801F01F040123A340184008B14F
:100C7000012010BD0020FCE710B500EB91121268B6
:100C800001F01F040123A3401A4300EB91131A60E3
:100C900010BDC1F3044301229A40D24300EB9153AB
:100CA0001A60704770B5024600230024C1F3891012
:100CB000105801F01F060125B54000EA050302EBBC
:100CC00091500068C1F304460125B54000EA0504CF
:100CD00014B10BB1012070BD0020FCE7C26822F402
:100CE000C062C260C2680A43C2607047C26822F034
:100CF0000402C260C26801F004031A43C260704774
:100D0000026922F44052026102690A43026170479B
:100D1000C26822F00802C260C26801F008031A43E8
:100D2000C2607047C26822F48052C260C2680A433F
:100D3000C260704702060000000801400001000088
:100D400006060000001801404000000007060000F1
:100D5000001C0140400000000206000000080140A5
:100D600001000000080600000020014000200000F3
:100D700008060000002001400040000008060000B6
:100D80000020014000800000003801400E060206ED
:100D900000080140000200000004000025000000DF
:100DA000C00D000800000020140000009C02000894
:100DB000D40D00081400002014040000AC02000848
:100DC0000000000000000000000000000000000023
:040DD000000000001F
:0400000508000131BD
:00000001FF
