:020000040800F2
:10000000C8050020450100084D0100084F01000807
:1000100051010008530100085501000800000000CC
:100020000000000000000000000000005701000870
:1000300059010008000000005B010008910200085F
:100040005F0100085F0100085F0100085F01000810
:100050005F0100085F0100085F0100085F01000800
:100060005F0100085F0100085F0100085F010008F0
:100070005F0100085F0100085F0100085F010008E0
:100080005F0100085F0100085F0100085F010008D0
:100090005F0100085F0100085F0100085F010008C0
:1000A0005F0100085F0100085F0100085F010008B0
:1000B0005F0100085F0100085F0100085F010008A0
:1000C0005F0100085F0100085F0100085F01000890
:1000D0005F010008610300085F0100085F0100087C
:1000E0005F0100085F0100085F0100085F01000870
:1000F0005F0100085F0100085F0100085F01000860
:100100005F0100085F0100085F0100085F0100084F
:100110005F0100085F0100085F0100085F0100083F
:100120005F0100085F0100085F0100085F0100082F
:10013000DFF80CD000F04AF800480047FD10000836
:10014000C80500200648804706480047FEE7FEE74E
:10015000FEE7FEE7FEE7FEE7FEE7FEE7FEE7FEE777
:10016000B9020008310100082DE9F05F05460020C2
:1001700092469B4688460646814640241BE0284618
:1001800041464746224600F042F853465A46C01AB6
:10019000914110D311461846224600F029F82D1A35
:1001A00067EB01084F4622460120002100F020F8AD
:1001B00017EB00094E41201EA4F10104DFDC484684
:1001C00031462A464346BDE8F09F0000064C074DE5
:1001D00006E0E06840F0010394E807009847103417
:1001E000AC42F6D3FFF7A8FFA8190008C819000809
:1001F000202A04DB203A00FA02F1002070479140E7
:10020000C2F1200320FA03F3194390407047202ADB
:1002100004DB203A21FA02F00021704721FA02F3B0
:10022000D040C2F120029140084319467047C16096
:100230008260002303604360704710B50246D2E934
:100240000003984201D1032010BD1368D068C05C40
:1002500008701068401C9368B0FBF3F403FB1400B3
:1002600010600020F0E730B502465068401C9468EA
:10027000B0FBF4F504FB15031068984201D102208D
:1002800030BD5468D068015553600020F8E7000085
:1002900010B5074802684068521C40F1000004494C
:1002A0000A6048600348046804B1A04710BD00001C
:1002B000000000200800002008B52648006840F42F
:1002C0007000244908602448006840F00100224979
:1002D000086000BF2048006800F002000028F9D044
:1002E00000BF1D48406840F080001B494860002066
:1002F000009002E00098401C009000985028F9D32C
:100300001548406840F09000134948600020009074
:1003100002E00098401C009000985028F9D300BFDC
:100320000D48406820F003000B494860084600680B
:100330000A490840084908604FF41F0088600846D1
:10034000006820F48020086000204860C86201F046
:100350000FF908BD88ED00E000100240FFFFF6FE37
:1003600010B50C4908680C4901F0A0FA88B1094998
:10037000086801F01FFAC4B20848006818B12046A6
:1003800006490968884703490868034901F085FA66
:1003900000BF10BD9019000805030500580000209B
:1003A0000FB4054B10B503A9044A029800F018F8E1
:1003B00010BC5DF814FB0000C50D00085C000020B7
:1003C00002E008C8121F08C1002AFAD1704770471E
:1003D000002001E001C1121F002AFBD1704700007C
:1003E0002DE9FF4F8DB00F460546002606E0252873
:1003F0000BD0DDE90F1290476D1C761C2878002881
:10040000F5D111B03046BDE8F08F0024A246A146D8
:100410000122EC4900E0044315F8013F203B02FAB9
:1004200003F00842F7D128782A2810D06FF02F0265
:100430002878A0F13001092914D80AEB8A0102EBCF
:10044000410144F0020400EB010A6D1CF0E701CF0A
:100450005FEA000A03D544F40054CAF1000A44F0EC
:1004600002046D1C28782E2817D115F8010F44F0CE
:1004700004042A280ED06FF02F022878A0F1300152
:1004800009290AD809EB890102EB410100EB0109B6
:100490006D1CF2E757F8049B6D1C28786C280FD070
:1004A00006DC4C2817D068280DD06A2814D104E047
:1004B000742810D07A280FD10DE044F400140AE01B
:1004C00044F4801401E044F440146978814202D17C
:1004D00004F580146D1C6D1C2A786E2A1FD00CDC6C
:1004E000632A31D004DC002A8BD0582A11D1A3E032
:1004F000642A68D0692A0CD165E0732A2ED004DC06
:100500006F2A73D0702A04D19BE0752A6FD0782AA5
:100510006ED01046DDE90F129047761C50E1C4F30F
:100520000250022806D0032809D0042801CF09D0A0
:10053000066045E101CFF117C0E9006140E101CF5C
:1005400006803DE106703BE117F8040B8DF80000D2
:1005500000208DF80100EB46012003E057F804BBB2
:100560004FF0FF3061074FF0000102D40DE008F1B9
:100570000101884649450FDA8045F8DB1BF8081071
:100580000029F4D108E008F1010188468142FADB34
:100590001BF808100029F6D1DDE90F23AAEB0800AB
:1005A0008146214600F036F9304400EB080604E0AD
:1005B000DDE90F121BF8010B9047B8F10108F7D2E3
:1005C00021464846F7E00A21C4F302534FF0000BDE
:1005D0000891022B04D001CFC117032B09D00AE0E8
:1005E000FF1D27F00707F7E8020108E032E01FE0EF
:1005F00020E000B2C117042B01D140B2C117031E85
:1006000071F1000307DA4FF0000CD0EB0C006CEB3B
:1006100001012D2302E0230504D52B238DF824307E
:10062000012303E0E30701D02023F7E7984658E0D1
:100630000A2110E010210EE010204FF0000B08906E
:100640000CE010214FF0000B44F004044FF00809B7
:10065000089103E008214FF0000B0891C4F3025306
:10066000022B04D001CF0021032B06D006E0FF1D92
:1006700027F00707F7E8020103E080B2042B00D15E
:10068000C0B24FF0000823072BD5702A07D0DDF841
:1006900020C08CF0100C5CEA0B0C05D00EE040235F
:1006A0008DF82430012308E050EA010306D03023FE
:1006B0008DF824308DF8252002239846DDF820C0DF
:1006C0008CF0080C5CEA0B0C0BD150EA010301D151
:1006D000630706D530238DF824304FF00108A9F1C7
:1006E0000109582A04D038A20B9208AA0A920BE0FA
:1006F0003AA2F9E75B46089AFFF736FD0B9B9B5C35
:100700000A9A521E0A92137050EA0102F2D10A9814
:10071000ADEB000000F1200B600702D524F480341B
:1007200001E04FF00109D94502DDA9EB0B0000E023
:10073000002000EB0B0141440890AAEB010AE00302
:1007400006D4DDE90F232146504600F063F8064445
:100750004FF0000908E009A911F80900DDE90F12BE
:10076000904709F10109761CC145F4DBE0030CD583
:10077000DDE90F232146504600F04CF8064404E022
:10078000DDE90F1230209047761C0899481E08902A
:100790000029F5DC08E00A980A990078491C0A91BA
:1007A000DDE90F129047761CBBF10001ABF1010BA4
:1007B000F1DC21465046DDE90F2300F019F806442C
:1007C0006D1C1BE6092801003031323334353637D1
:1007D000383961626364656600000000303132338D
:1007E000343536373839414243444546000000002D
:1007F0002DE9F041044600251E461746880404D41E
:1008000005E039462020B0476D1C641EF9D5284606
:10081000BDE8F0812DE9F041044600251E469046D2
:10082000C80301D5302700E02027880404D505E05F
:1008300041463846B0476D1C641EF9D52846BDE8D0
:10084000F08110B500F020F910BD000010B500F0E7
:1008500037FA044604B910BD532C36D00EDC042CF4
:1008600027D006DC012C18D0022C1AD0032C48D13A
:100870001BE0512C21D0522C43D122E0832C34D0C8
:1008800006DC542C25D0812C27D0822C39D128E0AD
:10089000842C2ED0FF2C34D12FE01EA0FFF780FD3A
:1008A00034E023A0FFF77CFD30E028A0FFF778FDBF
:1008B0002CE02DA0FFF774FD28E032A0FFF770FDBB
:1008C00024E037A0FFF76CFD20E03CA0FFF768FDB7
:1008D0001CE041A0FFF764FD18E046A0FFF760FDB3
:1008E00014E04AA0FFF75CFD10E04EA0FFF758FDB2
:1008F0000CE052A0FFF754FD08E056A0FFF750FDB2
:1009000004E0214658A0FFF74BFD00BF00BF00BF29
:10091000A1E700005B4B45595D204B455931205301
:10092000484F52542050524553530D0A00000000C6
:100930005B4B45595D204B4559322053484F52542B
:100940002050524553530D0A000000005B4B45599F
:100950005D204B4559332053484F52542050524547
:1009600053530D0A000000005B4B45595D204B4579
:1009700059342053484F52542050524553530D0A76
:10098000000000005B4B45595D204B455931204428
:100990004F55424C452050524553530D0A0000001C
:1009A0005B4B45595D204B45593220444F55424CD5
:1009B000452050524553530D0A0000005B4B4559EA
:1009C0005D204B45593320444F55424C45205052F1
:1009D0004553530D0A0000005B4B45595D204B45C4
:1009E000593420444F55424C452050524553530DE5
:1009F0000A0000005B4B45595D204B455931204CA6
:100A00004F4E472050524553530D0A005B4B4559FA
:100A10005D204B455932204C4F4E47205052455394
:100A2000530D0A005B4B45595D204B455933204C13
:100A30004F4E472050524553530D0A005B4B4559CA
:100A40005D204B455934204C4F4E47205052455362
:100A5000530D0A005B4B45595D204552524F5220C1
:100A600050524553530D0A005B4B45595D20554E7E
:100A70004B4E4F574E2056414C55453A2030782525
:100A80003032580D0A00000010B5044800F0E0FDB7
:100A90004D2203490348FFF7CAFB10BD09120008A5
:100AA00070000020600000202DE9FC410020019032
:100AB000B3E05E48007830B1012812D0022832D06D
:100AC00003287DD152E09DF80400552808D19DF8F7
:100AD00004005749087001205649087053490870AE
:100AE0009AE09DF80400AA2809D19DF80400504915
:100AF000487002204F4908704C49087012E09DF878
:100B00000400552809D19DF80400494908700120C6
:100B1000484908704549087004E0002043490870BE
:100B20004449087078E09DF804004349087008467D
:100B30000078012804DB08460078001D0B2805DD3D
:100B400000203A4908703B49087065E03A4800784F
:100B50003749887003203749087037480078401CAF
:100B60003649087003203149087055E09DF804109B
:100B7000304802780078401C2E4B18702C48815465
:100B80002E480078401EC0B22C49087000283CD185
:100B900029480078001DC5B227480078C01CC1B2A2
:100BA000234800F055F80646214923480078C01C28
:100BB0000F5CBE4223D10846C078062811D100E060
:100BC00024E01D48007803280BDB084600798DF8E7
:100BD0000000084640798DF80100684600F045F8AD
:100BE00000BF002406E01248015D15A0FFF7D8FB06
:100BF000601CC4B2AC42F6DB13A0FFF7D1FB0020AF
:100C00000A4908700B49087000BF05E00020074939
:100C100008700849087000BF00BF01A90B48FFF722
:100C20000CFB00283FF445AFBDE8FC8150000020DC
:100C3000BD00002051000020520000205300002081
:100C400025303278200000000A00000060000020FB
:100C500010B502460023002003E0145C6340441CEE
:100C6000E0B28842F9DB184610BD10B50446607842
:100C700018B1207800F088F802E0207800F06EF8D3
:100C800010BD00000C48006820F080700A49086020
:100C90000846006840F0807008600848006820F04E
:100CA0000100064908600846006840F0010008603D
:100CB0000020486070470000FCED00E0001000E0FC
:100CC00070B50025002407E0204600F00DF9054628
:100CD00005B103E0601CC4B2042CF5D300BF284664
:100CE00070BD10B500F00CF800F005F84FF4E130DD
:100CF00000F060F810BD10B500F0D6F810BD00008F
:100D000010B5002424E004EB4401134A32F821001A
:100D100000F030FB04EB44010F4A02EB81018B68C9
:100D200004EB440102EB810101224868102100F02C
:100D300055F804EB4402084B03EB8202916804EB84
:100D4000440203EB8202506800F044F8601CC4B215
:100D5000032CD8D310BD00003C19000810B5044680
:100D6000032C00D910BD04EB4402064B03EB8202B6
:100D7000916804EB440203EB8202506800F02AF809
:100D800000BFEFE73C19000810B50446032C00D95A
:100D900010BD04EB4402064B03EB8202916804EBA6
:100DA000440203EB8202506800F016F800BFEFE740
:100DB0003C19000810B5044600F050FC204600F035
:100DC00063FC10BD70B504460D46E0B200F098FC1F
:100DD000204670BD4161704701617047F0B504461F
:100DE00016460025002201F00F0501F0100747B15B
:100DF000042E05D145F00305E76B1F43E76300E0D0
:100E0000354300201EE0012787401F40C7B12268FC
:100E10004FEA800C0F2707FA0CF7BA43870005FA50
:100E200007F73A43282904D1012787401F4067610B
:100E300005E0482903D1012787401F402761226030
:100E4000471CB8B20828DED3082022E001278740DB
:100E50001F40E7B16268A0F108074FEA870C0F272F
:100E600007FA0CF7BA43A0F10807BF0005FA07F725
:100E70003A43282904D1012787401F40676105E0D4
:100E8000482903D1012787401F4027616260471C22
:100E9000B8B21028DAD3F0BD02469068084008B115
:100EA000012070470020FCE710B5002417E004EB98
:100EB00044010C4A32F8210000F05CFA04EB4401D2
:100EC000084A02EB81018B6804EB440102EB8101CB
:100ED000022248684821FFF781FF601CC4B2042C3D
:100EE000E5D310BD601900082DE9F0410446042C3B
:100EF00002D3FF20BDE8F08104EB44027D4B03EBFD
:100F00008202916804EB440203EB82025068FFF70F
:100F1000C3FF08B9012000E00020074600F066FA90
:100F200005460E4604EB4400734911F8300030B119
:100F3000012834D0022857D0032877D1B9E004EB38
:100F400044006D4901EBC0004078012818D104EB42
:100F5000440001EBC001D1E904012A1A66EB01004B
:100F60004FF4967300219A1A814109D2002004EBB4
:100F70004401614A02EBC1014870601CC0B2B9E78C
:100F800067B104EB44005C4901EBC000C0E90256C4
:100F9000012004EB4401584A02F83100A6E0E7B111
:100FA00004EB4400544901EBC001D1E902012B1AC2
:100FB00066EB010014229A1A70F1000013D304EBBF
:100FC00044004D4901EBC000C0E90256022004EB89
:100FD0004401494A02F8310005E0002004EB4401D5
:100FE000454A02F8310081E0E7BB002004EB4401F0
:100FF000414A02F8310004EB4400114601EBC00005
:101000004078401C04EB440102EBC101487004EB42
:101010004400114601EBC0004078012807D104EBE1
:10102000440001EBC000C0E9045641E052E004EB8B
:101030004400314901EBC000D0E904106A1A66EBA4
:1010400000004FF4967300219A1A81410BD30020BF
:1010500004EB4401284A02EBC101487004F151003D
:10106000C0B247E70EE0012004EB4401224A02EB44
:10107000C101487004EB4400114601EBC000C0E917
:10108000045615E004EB44001B4901EBC001D1E913
:1010900002012A1A66EB01004FF44871511A70F1EF
:1010A000000005D3032004EB4401134A02F8310089
:1010B0001CE077B9002004EB44010F4A02F831002C
:1010C00004EB440102EBC101487004F18100C0B29D
:1010D00010E70BE0002004EB4401074A02F831005E
:1010E00004EB440102EBC101487000BF00BF0020C7
:1010F00000E70000601900086801002000F03CFAD9
:1011000000F06EF9FFF7EDFDFFF79BFB03A0FFF783
:1011100047F901E000F038FAFCE7000075617274ED
:101120005F746573745F73746172740D0A000000FC
:101130002DE9F04103460D46164600240027A0463F
:101140002A48006800F4E060B0F5E06F03D100BF0A
:101150004FF0040830E02548006800F4E060B0F586
:10116000C06F03D101274FF0030825E01F48006836
:1011700000F4E060B0F5A06F02D10227B8461BE092
:101180001A48006800F4E060B0F5806F03D10327CF
:101190004FF0010810E01548006800F4E060B0F579
:1011A000407F03D104274FF0000805E04FF4A06012
:1011B00000F020F80227B846C7F1040005FA00F451
:1011C000C8F104010F20C8403040044324010848FE
:1011D000C45403F01F01012088405911890001F116
:1011E000E021C1F80001BDE8F08100000CED00E055
:1011F00000E400E002490143024A11607047000028
:101200000000FA050CED00E010B504462146024846
:10121000FFF729F810BD0000600000202DE9F04F15
:101220008CB0074600200A904AA090E8004CC068A5
:10123000CDE905BECDF810A007900FF21C1ADAE92F
:10124000000ACDE9020A0FF2101ADAE9000ACDE924
:10125000000A44484068C0F381000B900B9820B10D
:10126000012804D002283FD103E03F4A3EE03E4A35
:101270003CE03C48406800F4803CBCF5803F12D123
:101280003848C06A00F08048B8F1000F01D1364BF1
:1012900000E0364B3348406800F40039B9F5003FB0
:1012A00002D15B0800E0324B2E484068C0F3834116
:1012B0002C48406800F0006008B141F01001294856
:1012C000406800F0804008B141F020010F2901D2B0
:1012D000891C06E00F2903D33E2901D8491C00E0F0
:1012E0003F2103FB01F201E01F4A00BF00BF1D4880
:1012F0004068C0F3031504A8465D22FA06F41948B5
:101300004068C0F3022502A8465D24FA06F0099061
:1013100014484068C0F3C2251DF8056024FA06F0A1
:10132000089037B1012F06D0022F06D0032F0AD123
:1013300006E00A9208E00A9406E009980A9003E0A1
:1013400008980A9000E000BF00BF0A980CB0BDE802
:10135000F08F000000000000000000000102030404
:10136000060708090010024000127A00006CDC0237
:1013700000093D00064A02EB9011096800F01F03C6
:1013800001229A401143024B03EB90121160704707
:1013900000100240064A02EB9011096800F01F039A
:1013A00001229A409143024B03EB90121160704767
:1013B00000100240064A02EB9011096800F01F037A
:1013C00001229A401143024B03EB901211607047C7
:1013D000001002400149086070470000080000202A
:1013E00010B5FFF74FFC00F007F810BD0149086881
:1013F000496870470000002070B50120FFF70EFF1C
:101400004FF47A71B0FBF1F4601EB0F1807F01D32C
:1014100001201BE0601E4FF0E021486148170F21BA
:10142000002807DA0A07150E0A4A00F00F031B1FEF
:10143000D55403E00A07130E074A135400BF0020D7
:101440004FF0E021886107200861002008B100BF4B
:10145000FEE770BD18ED00E000E400E00020002190
:101460003F4A126842F480323D4B1A6000BF401C74
:101470003B4A126802F4003119B94FF6FF729042EC
:10148000F5D1374A126802F400320AB900BFFEE70C
:10149000334AD26942F08052314BDA61314A1268E4
:1014A00042F440422F4B1A602D4A52682C4B5A602E
:1014B0001A4652685A601A46526842F480625A606C
:1014C0001A46526822F440325A601A46526842F470
:1014D00040325A601A465268234B1A40204B5A60D9
:1014E0001A465268214B1A431D4B5A601A4612681D
:1014F00042F080721A6000BF194A126802F000724E
:10150000002AF9D0174A126842F48032154B1A604B
:1015100000BF144A526802F48032002AF9D0114AFE
:10152000126842F400320F4B1A6000BF0D4A526835
:1015300002F40032002AF9D0094A526822F003026C
:10154000074B5A601A46526842F002025A6000BFC6
:10155000034A526802F00802002AF9D070470000DE
:101560000010024000700040FFFFC3B700003408C5
:1015700010B5FFF773FF10BD10B50248FFF72AFF43
:1015800010BD0000C515000810B5002415E00C487A
:1015900000EB4410007870B10020094901EB4411C0
:1015A0000870074800EB4410806920B1044901EB42
:1015B000441188698047601CC4B2022CE7DB10BD6F
:1015C0001000002010B500203DE0204901EB401242
:1015D000D2E90412002359405A40114300D130E0AF
:1015E0001A4901EB4011D1E9022100246240614017
:1015F0000A430CD0154901EB4011D1E90221521EDA
:1016000061F10001114B03EB4013C3E902210F49C3
:1016100001EB4011D1E902210024624061400A43FC
:101620000ED10121094A02EB40121170074901EB6A
:101630004011D1E90421054B03EB4013C3E902211A
:1016400000BF411CC8B20228BFDB10BD1000002043
:1016500001490860704700005800002010B5094992
:10166000C888FFF787FE0749CB68012288681821E0
:10167000FFF7B4FB03490B69012288684821FFF793
:10168000ADFB10BD9019000810B504461B498888B1
:10169000FFF770FE1949086800F096F817490868C6
:1016A000002100F043F915490868002100F01AF9FB
:1016B00012490868002100F027F9104908682146FE
:1016C00000F030F80D490868082100F025F90B49B1
:1016D0000868042100F00EF90849086840F2053155
:1016E00000F0CEF80549086800F0B6F80349087D17
:1016F00000221146FFF71CFD10BD000090190008E4
:1017000010B5044606490868214600F058F800BFA5
:1017100003490868072100F0A4F80028F8D010BD9C
:10172000901900082DE9F04704460D460027B846F9
:10173000B94600261D49601A8C421CD006DC1C48A4
:10174000204470B1B0F5806F1FD10FE0B0F5806F0D
:1017500016D0B0F56C4F18D10320FFF75FFD074698
:1017600014E00220FFF75AFD07460FE00220FFF7C2
:1017700055FD07460AE00220FFF750FD074605E049
:101780000220FFF74BFD074600E000BF00BF07EB5C
:101790005500B0FBF5F64FF6F07006EA000806F0CB
:1017A0000F0948EA0900A060BDE8F087004C00403E
:1017B00000BCFFBF01464868C0F308007047C1F392
:1017C000080242607047000010B504462049601AC4
:1017D0008C4228D006DC1F48204490B1B0F5806FC1
:1017E00033D117E0B0F5806F26D0B0F56C4F2CD117
:1017F00040F20E30FFF7DEFD40F20E30FFF7CAFD7B
:1018000024E040F21140FFF7D5FD40F21140FFF710
:10181000C1FD1BE040F21240FFF7CCFD40F2124048
:10182000FFF7B8FD12E040F21340FFF7C3FD40F2AE
:101830001340FFF7AFFD09E040F21440FFF7BAFD97
:1018400040F21440FFF7A6FD00E000BF00BF10BD4E
:10185000004C004000BCFFBFC16841F40051C160B2
:10186000704710B5024602EB9110006801F01F04AA
:101870000123A340184008B1012010BD0020FCE75F
:1018800010B500EB9112126801F01F040123A34070
:101890001A4300EB91131A6010BDC1F304430122F7
:1018A0009A40D24300EB91531A60704770B50246DC
:1018B00000230024C1F38910105801F01F060125F0
:1018C000B54000EA050302EB91500068C1F30446FD
:1018D0000125B54000EA050414B10BB1012070BD2B
:1018E0000020FCE7C26822F4C062C260C2680A43FA
:1018F000C2607047C26822F00402C260C26801F090
:1019000004031A43C2607047026922F44052026124
:1019100002690A4302617047C26822F00802C2608D
:10192000C26801F008031A43C2607047C26822F41B
:101930008052C260C2680A43C2607047020600005B
:1019400000080140000100000606000000180140E8
:101950004000000007060000001C0140400000009D
:101960000206000000080140010000000806000017
:101970000020014000200000080600000020014077
:101980000040000008060000002001400080000028
:10199000003801400E060206000801400002000067
:1019A0000004000025000000C81900080000002005
:1019B00060000000C0030008281A00086000002032
:1019C00068050000D00300080000000000000000CF
:1019D0000000000000000000000000000000000007
:1019E000640000000000000064000000000000002F
:1019F000A90A00080000000000000000000000002C
:101A000005000000000000000500000000000000CC
:101A10004D08000800000000000000000000000069
:081A20000000000000000000BE
:0400000508000131BD
:00000001FF
