:020000040800F2
:1000000040060020450100084D0100084F0100088E
:1000100051010008530100085501000800000000CC
:100020000000000000000000000000005701000870
:1000300059010008000000005B0100085D0900088C
:100040005F0100085F0100085F0100085F01000810
:100050005F0100085F0100085F0100085F01000800
:100060005F0100085F0100085F0100085F010008F0
:100070005F0100085F0100085F0100085F010008E0
:100080005F0100085F0100085F0100085F010008D0
:100090005F0100085F0100085F0100085F010008C0
:1000A0005F0100085F0100085F0100085F010008B0
:1000B0002D0A00085F0100085F0100085F010008C9
:1000C0005F0100085F0100085F0100085F01000890
:1000D0005F010008750A00085F0100085F01000861
:1000E0005F0100085F0100085F0100085F01000870
:1000F0005F0100085F0100085F0100085F01000860
:100100005F0100085F0100085F0100085F0100084F
:100110005F0100085F0100085F0100085F0100083F
:100120005F0100085F0100085F0100085F0100082F
:10013000DFF80CD000F0DCFA004800470522000888
:10014000400600200648804706480047FEE7FEE7D5
:10015000FEE7FEE7FEE7FEE7FEE7FEE7FEE7FEE777
:10016000850900083101000838B5D0E90221491E8F
:1001700001EB410102EBC1014268C1EB011102EB4D
:1001800081010268C1EB011102EB8102D0E9043167
:1001900001EB410103EB81013023A1F5527191FB89
:1001A000F3F4174D6C4302EBC41291FBF3F403FB21
:1001B000141100921A2902DB124B1A4400920C22ED
:1001C00091FBF2F3104C6343009C04EBC3130093C8
:1001D00091FBF2F302FB13110C4A08E0491E40F2B6
:1001E000A324535C6343009C04EBC31300930029D6
:1001F000F4DC0146684600F07DF8009838BD000048
:100200003F0C0F008051010067C20300A8360008B0
:10021000D2B201E000F8012B491EFBD27047002248
:10022000F6E710B513460A4604461946FFF7F0FFF5
:10023000204610BD00F0004230F000400AD0C10D51
:1002400001F56071C0F3160042EA0151C20840078F
:100250001143704700200146704730B50B460146F8
:1002600000202022012409E021FA02F59D4205D355
:1002700003FA02F5491B04FA02F52844151EA2F1FF
:100280000102F1DC30BD2DE9F05F05460020924609
:100290009B4688460646814640241BE02846414648
:1002A0004746224600F045FA53465A46C01A914145
:1002B00010D311461846224600F02CFA2D1A67EB8F
:1002C00001084F4622460120002100F023FA17EBD7
:1002D00000094E41201EA4F10104DFDC48463146EE
:1002E0002A464346BDE8F09F014900F003B80000EC
:1002F0001002002010B500683C22B0FBF2F302FBB4
:100300001303B0FBF2F00B60B0FBF2F302FB13033C
:10031000B0FBF2F018224B60B0FBF2F302FB1303C8
:10032000B0FBF2F0021D8B600723B2FBF3F403FB7A
:100330001422800040F2B55300F66C308A61B0FBA5
:10034000F3F2B0FBF3F403FB1400443280084A617B
:10035000C8613B2802D3920700D0401C0022074C02
:1003600013460A61E25C824203D8801A5B1C0B616F
:10037000F8E7401CC860084610BD0000B43600080D
:100380002DE9FE4F804681EA0300C00F0C46009025
:1003900021F0004123F00045B8EB0200A94105D24D
:1003A0004046214690461C460B46024623F000403C
:1003B000104347D0270DC7F30A00C3F30A51029038
:1003C000401A019040286BDAC3F3130040F4801BFD
:1003D0000098924620B10023D2EB030A63EB0B0B8B
:1003E00001985946C0F14002504600F093F9064684
:1003F0000D4650465946019A00F0ABF910EB080043
:100400006141002487EA115284EAE7731A4340D01D
:10041000009A62B3019A012A4FEA075215DC001BC9
:1004200061EB02014FF0004202EA0752CDE90042BF
:10043000001C41F5801132462B4600F0ABF903B0A9
:10044000BDE8F08F40462146F9E7001B61EB020151
:10045000001C41F5801300185B412018A2F500171D
:1004600047EB030140EAD570B6196D4111E06D0804
:100470004FEA360645EAC0754FEA0752001B61EBAA
:100480000201001C41F5801149084FEA30000019B3
:10049000514132462B4603B0BDE8F04F00F06BB936
:1004A0000098012240000023D0EB020263EBE073CE
:1004B000009821464FEAE074B8EB000061EB0401BC
:1004C000E9E783F000435BE781F0004158E72DE95D
:1004D000FE4F81EA030404F0004421F0004100943F
:1004E0004FF0000B23F0004350EA01045ED052EAC3
:1004F00003045BD0C3F30A54C1F30A552C44A4F29D
:10050000F3340194A0FB0254C1F3130141F48011B0
:10051000C3F3130343F4801301FB024400FB034EB7
:10052000840A970A44EA815447EA8357A4FB076880
:1005300002958D0A05FB07854FEA932C04FB0C54AA
:100540002705029D4FEA065847EA1637B5EB08051E
:100550006EEB070C870E920E47EA811742EA831270
:10056000A7FB0201B6EB0B0164EB00042B0D43EA81
:100570000C335E1844EB1C50DA465146E7FB02018F
:10058000C5F313044FEA0B3343EA14534FEA043222
:10059000019C43EA0603A4F10C040294009CCDE9FB
:1005A00000B400F0F7F803B0BDE8F08F002001467A
:1005B000F9E72DE9F04D81EA030404F0004B21F046
:1005C000004514464FF0000A23F0004150EA0502AE
:1005D00020D054EA01021DD0C5F30A570246C5F3E4
:1005E0001303C1F31300C1F30A5640F4801543F41A
:1005F0008013A7EB0608101BD64608F2FD3873EBF4
:10060000050002D308F1010801E092185B41B8F13E
:10061000000F03DA00200146BDE8F08D00204FF402
:100620008011064684460EE0171B73EB050705D3C1
:10063000121B63EB050306434CEA010C49084FEA21
:10064000300092185B4150EA0107EDD152EA0300F5
:1006500012D082EA040083EA0501084305D0101B8A
:10066000AB4106D20122002306E000224FF00043F6
:1006700002E06FF0010253101AEB06004CEB085138
:1006800010EB0A0041EB0B01BDE8F04D00F073B830
:10069000C1F30A52C1F3130140F2FF3341F4801158
:1006A0009A4202DA00200146704740F233439A42F0
:1006B000A2F2334202DC524200F03BB800F02AB80A
:1006C00030B5041E71F1000404DB4FF000444042D9
:1006D00064EB0101141E73F1000405DB1C464FF0AE
:1006E0000043524263EB0403994208BF904230BD7D
:1006F000064C074D06E0E06840F0010394E807006F
:1007000098471034AC42F6D3FFF716FDC036000808
:10071000E0360008202A04DB203A00FA02F100202B
:1007200070479140C2F1200320FA03F3194390402F
:100730007047202A04DB203A21FA02F0002170479A
:1007400021FA02F3D040C2F1200291400843194639
:100750007047202A06DBCB17203A41FA02F043EA21
:10076000E07306E041FA02F3D040C2F1200291406A
:1007700008431946704710B5141E73F1000408DAD7
:10078000401C41F1000192185B411A4301D120F055
:10079000010010BD2DE9F04D92469B4611B1B1FA12
:1007A00081F202E0B0FA80F220329046FFF7B2FF09
:1007B00004460F4640EA0A0041EA0B0153465A46F6
:1007C000084313D0114653EA010019D0C8F1400282
:1007D0005046FFF7AEFF05460E4650465946424684
:1007E000FFF798FF084305D0012004E02046394672
:1007F000BDE8F08D0020054346EAE0762C43374300
:100800000A986305E40AA0EB08000022FD0A44EA06
:1008100047540A3002D500200146E9E701051019C6
:100820006941DDE9084500196941BDE8F04DA2E7DD
:1008300010B540F2096001F013FF092001F070FDCE
:10084000002000F03BFE01220221154800F0ADFE21
:100850000021134800F0DFFD01221146104800F08E
:10086000B7FD07230C2200210D4800F035FE4FF4A0
:10087000602201210A4800F001FE012211460848C9
:1008800000F0DDFD064800F0D1FD322001F070F9E6
:10089000034800F088FD0121014800F077FE10BDFB
:1008A0000024014010B540F2026001F0D9FE4FF47F
:1008B000807304221821024801F014FB10BD0000CF
:1008C0000008014010B540F2026001F0C9FE0123AA
:1008D00004221146014801F005FB10BD000801404B
:1008E00010B540F2046001F0BBFE04230122002198
:1008F000014801F0F7FA10BD00100140C1608260AC
:10090000002303604360704710B50246D2E900033C
:10091000984201D1032010BD1368D068C05C0870F4
:100920001068401C9368B0FBF3F403FB14001060E4
:100930000020F0E730B502465068401C9468B0FBD8
:10094000F4F504FB15031068984201D1022030BD74
:100950005468D068015553600020F8E710B5074887
:1009600002684068521C40F1000004490A60486077
:100970000348046804B1A04710BD00000000002037
:100980000800002008B52648006840F4700024499B
:1009900008602448006840F001002249086000BF58
:1009A0002048006800F002000028F9D000BF1D4870
:1009B000406840F080001B4948600020009002E041
:1009C0000098401C009000985028F9D315484068C2
:1009D00040F09000134948600020009002E0009829
:1009E000401C009000985028F9D300BF0D48406883
:1009F00020F003000B494860084600680A49084097
:100A0000084908604FF41F0088600846006820F419
:100A10008020086000204860C86201F0ADFF08BD7A
:100A200088ED00E000100240FFFFF6FE10B5022145
:100A3000480702F0E5FB012816D10021800702F0EB
:100A40000BF8401C094908600121880702F004F8EE
:100A5000401C0749086000214FF0804002F0B1F9C6
:100A60000221480702F0C9FB10BD00009C000020D5
:100A7000A000002010B50C4908680C4902F092FD56
:100A800088B10949086802F011FDC4B2084800683D
:100A900018B1204606490968884703490868034990
:100AA00002F077FD00BF10BD883600080503050081
:100AB000980000200FB4054B10B503A9044A029812
:100AC00000F0DAF810BC5DF814FB0000451E0008C9
:100AD000A400002002E008C8121F08C1002AFAD1B1
:100AE00070477047002001E001C1121F002AFBD1AE
:100AF000704700002DE9FF5F82B00021DDE904307E
:100B0000020DDDF840B0034318D044F61050A2F2B5
:100B1000FF3242431514119801281FD0A5EB0B009A
:100B2000401C5FEA000A4FF000064E4FDFF8389194
:100B3000B046504615D5CAF1000413E011980124BF
:100B40004AA3012801D16FEA0B010298119AC0E96A
:100B50000031C0E9024206B0BDE8F09FCBF10000D1
:100B6000DFE704460021404A491842EB0450CDE932
:100B7000001012E0E00707D032463B4640464946A7
:100B8000FFF7A5FC8046894632463B46104619468B
:100B9000FFF79DFC06460F466410002CEAD1DDE904
:100BA0000401DDE90023BAF1000F06DAFFF78FFC3C
:100BB00042464B46FFF78BFC05E0FFF7FAFC424646
:100BC0004B46FFF7F6FC04460E460022284BFFF783
:100BD00077FD03D84FF0FF30014607E00022254B98
:100BE00020463146FFF7CCFBFFF752FD102409E009
:100BF000002C0ADB0A220023FFF745FB039B30325F
:100C00001A55641E50EA0102F2D1641C039AC4F121
:100C100011031444119A012A03D0012208430DD173
:100C20000AE0084304D000204FF0110B119072E746
:100C3000A3EB0B056D1E0DE05B4504DD4FF00002DC
:100C400005F1010504E003DA4FF00002A5F101050A
:100C5000002AECD002981199C0E90231C0E90045A0
:100C600079E70000000014400000F03F3000000071
:100C70000000F0430000E03F2DE9FF4F95B09B4698
:100C80008946064600250FE2252877D1002427460D
:100C9000F84A0121059400E0044316F8013F203B87
:100CA00001FA03F01042F7D130782A2811D06FF002
:100CB0002F033078A0F13002092A16D8059A44F0A3
:100CC000020402EB820203EB42021044761C059000
:100CD000EFE759F8042B0592002A03DA504244F456
:100CE0000054059044F00204761C30782E2816D16A
:100CF00016F8010F44F004042A280DD06FF02F02DB
:100D00003078A0F13003092B09D807EB870302EBF9
:100D10004303C718761CF3E759F8047B761C307838
:100D20006C280FD006DC4C2817D068280DD06A2814
:100D300014D104E0742810D07A280FD10DE044F4C7
:100D400000140AE044F4801401E044F44014727882
:100D5000824202D104F58014761C761C3078662815
:100D60000BD013DC582877D009DC002875D0452833
:100D7000F6D04628F4D047281AD19DE118E0632820
:100D800035D0642879D0652812D195E1702873D0C8
:100D900008DC6728F1D069286FD06E280DD06F2845
:100DA00006D1B5E073282CD0752875D0782874D07A
:100DB0005A46179990476D1C75E1C4F302500228FA
:100DC00009D003280DD0D9F8001004280DD00D60EB
:100DD00009F1040967E1D9F80010EA17C1E90052E6
:100DE000F6E7D9F800100D80F2E70D70F0E719F87A
:100DF000041B8DF8001000208DF80100EA46012048
:100E000003E059F804AB4FF0FF3061074FF00001E9
:100E100002D40DE008F101018846B9420FDA80459D
:100E2000F8DB1AF808100029F4D108E008F10101F4
:100E300088468142FADB1AF808100029F6D1059895
:100E40005B46A0EB080721463846179A00F094FA53
:100E5000284400EB080507E04DE029E10DE01AF811
:100E6000010B5A4617999047B8F10108F7D25B4633
:100E700021463846179A13E142E00A220092C4F351
:100E800002524FF0000A022A08D059F804CB032A74
:100E90004FEAEC710AD00DE029E02AE009F10701E0
:100EA00021F00702F2E802C1914609E00FFA8CFC3A
:100EB0004FEAEC71042A03D14FFA8CFC4FEAEC7133
:100EC000002907DA0A460021DCF1000C61EB02017F
:100ED0002D2202E0220504D52B228DF804200122C8
:100EE00003E0E20701D02022F7E7904659E00A210B
:100EF00002E010220DE010214FF0000A00910BE0FB
:100F000010224FF0000A44F004040827009203E086
:100F100008224FF0000A0092C4F30252022A05D0C0
:100F200059F804CB0021032A08D009E009F1070190
:100F300021F00702F2E802C1914605E01FFA8CFC9D
:100F4000042A01D10CF0FF0C4FF00008220728D52D
:100F5000702806D0009B83F0100353EA0A0305D0E3
:100F60000EE040228DF80420012208E05CEA010234
:100F700006D030228DF804208DF80500022290461C
:100F8000009B83F0080353EA0A030AD15CEA0102DA
:100F900001D1620705D530228DF804204FF00108F9
:100FA0007F1E582804D034A003900EA802900DE0B4
:100FB00036A0F9E753466046009AFFF764F9844685
:100FC0000398825C0298401E029002705CEA010065
:100FD000F0D1029806A9081A00F1200A600702D58C
:100FE00024F4803400E00127574502DDA7EB0A0016
:100FF00000E0002000EB0A01009005984144401AEF
:101000000590E00306D45B462146179A059800F048
:10101000B3F90544002706E001A85A46C05D1799B8
:1010200090476D1C7F1C4745F6DBE0030CD55B4603
:101030002146179A059800F09FF9054404E03020F6
:101040005A46179990476D1C0099481E0090002938
:10105000F5DC08E0029802995A460078491C029192
:10106000179990476D1CBAF10001AAF1010AF1DC51
:1010700065E100000928010030313233343536375C
:1010800038396162636465660000000030313233D4
:101090003435363738394142434445460000000074
:1010A00000F058F90544761C307800287FF4ECAD48
:1010B00019B02846BDE8F08F620700D4062709F171
:1010C000070222F0070CFCE80223E14603F0004887
:1010D0005FEA080C02D00FF2702C0DE05FEA045CAE
:1010E00002D50FF2682C07E05FEAC47C02D00FF251
:1010F000602C01E0AFF2700C4FF0FF3823F000439A
:10110000CDF850C065280CD006DC452809D046280B
:101110001DD047283DD13DE0662818D067287ED1F4
:1011200038E00021112F01DB112000E0781CCDE90F
:10113000000106A90EA8FFF7DDFCDDE90F010E9AFC
:1011400003910021009207F1010A04914DE04FF054
:1011500000400097CDE9011006A90EA8FFF7CAFCD0
:10116000DDE90F0203920E9B11990022DDF80CA01D
:101170000093049211B9791C00EB010AB7EB0A0045
:1011800004D4C0F1FF3007F1010A0490AAEB070074
:10119000019044E0012F00DA01270021112F01DD29
:1011A000112000E03846CDE9000106A90EA8FFF79E
:1011B000A1FCDDE90F010E9A039100210491009238
:1011C000BA4621070CD40399514500DA8A46BAF190
:1011D000010F05DD009AAAF10101515C302908D008
:1011E000B84202DA10F1040F06DA0121CDE901104C
:1011F00015E0AAF10101E9E7002805DC04990144A2
:101200000491AAEB000102E0411C514500DD8A4631
:101210000499401A401C01904FF0004002902007B2
:1012200004D40198504501DBCDF8048000208DF8EE
:101230004F0002980DF14F07B0F1004F25D02B2041
:101240000E9002984FF0020800280CDA40420290FB
:101250002D200E9007E00A210298FEF7FEFF3031A4
:10126000029007F8011DB8F10001A8F10108F2DCB5
:1012700002980028EFD1791E0E980870307800F09F
:10128000200040F0450007F8020D12A8C01B00F135
:1012900007081498007800B1012000EB0A010198BA
:1012A00001EBE07105984144401A401E0590E003AF
:1012B00006D45B462146179A059800F05DF8054470
:1012C0001498007818B15A46179990476D1CE0039E
:1012D00024D55B462146179A059800F04DF8054441
:1012E0001CE00498002807DBDDE90301884203DDE8
:1012F0000098405C179901E0179930205A469047B2
:10130000049805F10105401C04900198401E0190CD
:1013100004D12E205A46179990476D1CBAF100014E
:10132000AAF1010ADDDC05E017F8010B5A4617990E
:1013300090476D1CB8F10001A8F10108F4DC5B4690
:101340002146179A0598ABE62D0000002B000000FF
:10135000200000002DE9F041044600251E461746F6
:10136000880404D405E039462020B0476D1C641E73
:10137000F9D52846BDE8F0812DE9F0410446002565
:101380001E469046C80301D5302700E02027880478
:1013900004D505E041463846B0476D1C641EF9D5BA
:1013A0002846BDE8F081816841F00801816000BFF6
:1013B000816801F008010029FAD1816841F0040137
:1013C000816000BF816801F004010029FAD17047F3
:1013D00030B5012902D002291AD10CE0C36A23F4E6
:1013E0007003C362C36A541E4FF4700505EA0454C7
:1013F0002343C3620DE0836B23F440138363836B49
:10140000541E4FF4401505EA04542343836300E05F
:1014100000BF00BF30BD21B1826842F4006282602B
:1014200003E0826822F4006282607047816801F004
:10143000010119B9816841F001018160704772B101
:1014400001F001031BB1836843F48013836001F052
:10145000020393B1836843F4004383600DE001F01D
:1014600001031BB1836823F48013836001F002033E
:101470001BB1836823F4004383607047012902D0C5
:10148000022910D107E0836823F460238360836816
:101490001343836008E0836823F4E0438360836838
:1014A0001343836000E000BF00BF70470246002086
:1014B00013680B4003B1012070470000054909681B
:1014C00021F47021034A116011460968014311603B
:1014D0007047000004240140F0B51D4606290CD2D7
:1014E000436B01EB81071F26BE40B34301EB81062E
:1014F00002FA06F63343436322E00C290ED2036B53
:101500008E1F06EB86071F26BE40B3438E1F06EBD9
:10151000860602FA06F63343036311E010290FD260
:10152000C36AA1F10C0606EB86071F26BE40B34333
:10153000A1F10C0606EB860602FA06F63343C362F7
:101540000A2A0CD2046902EB42070726BE40B443C4
:1015500002EB420605FA06F63443046111E0122A52
:101560000FD2C468A2F10A0606EB46070726BE4062
:10157000B443A2F10A0606EB460605FA06F6344322
:10158000C460F0BD0146C86C80B2704701F0010232
:101590001AB1826842F48002826001F002021AB13C
:1015A000826842F4001282607047AAB101F480732D
:1015B0001BB1436843F48073436001F480631BB143
:1015C000436843F48063436001F00203CBB1836856
:1015D00043F00203836014E001F480731BB143689D
:1015E00023F48073436001F480631BB1436823F4E8
:1015F0008063436001F002031BB1836823F00203A0
:101600008360704770B52DED028B00F0DDFA044663
:1016100000EE104AB8EE400A9FED0D1AC0EE010A26
:101620009FED0C0A20EE800A10EE105A2846FEF7B5
:1016300001FE41EC180B53EC182B214606A0FFF7D6
:1016400039FA0D4800F094FABDEC028B70BD000031
:1016500000F07F453333534041646356616C203D55
:101660002025642C20566F6C74616765203D202511
:101670002E33662E0A00000040420F0010B500F025
:101680001FF910BD10B500F0ADFA044604B910BD45
:10169000532C36D00EDC042C27D006DC012C18D0BD
:1016A000022C1AD0032C48D11BE0512C21D0522CF3
:1016B00043D122E0832C34D006DC542C25D0812C5D
:1016C00027D0822C39D128E0842C2ED0FF2C34D185
:1016D0002FE01EA0FFF7EEF934E023A0FFF7EAF9B0
:1016E00030E028A0FFF7E6F92CE02DA0FFF7E2F9A3
:1016F00028E032A0FFF7DEF924E037A0FFF7DAF99F
:1017000020E03CA0FFF7D6F91CE041A0FFF7D2F99A
:1017100018E046A0FFF7CEF914E04AA0FFF7CAF997
:1017200010E04EA0FFF7C6F90CE052A0FFF7C2F997
:1017300008E056A0FFF7BEF904E0214658A0FFF7E5
:10174000B9F900BF00BF00BFA1E700005B4B4559DE
:101750005D204B4559312053484F5254205052453B
:1017600053530D0A000000005B4B45595D204B456B
:1017700059322053484F52542050524553530D0A6A
:10178000000000005B4B45595D204B455933205309
:10179000484F52542050524553530D0A0000000048
:1017A0005B4B45595D204B4559342053484F5254AB
:1017B0002050524553530D0A000000005B4B455921
:1017C0005D204B45593120444F55424C45205052E5
:1017D0004553530D0A0000005B4B45595D204B45B6
:1017E000593220444F55424C452050524553530DD9
:1017F0000A0000005B4B45595D204B45593320449E
:101800004F55424C452050524553530D0A0000009D
:101810005B4B45595D204B45593420444F55424C54
:10182000452050524553530D0A0000005B4B45596B
:101830005D204B455931204C4F4E47205052455367
:10184000530D0A005B4B45595D204B455932204CE6
:101850004F4E472050524553530D0A005B4B45599C
:101860005D204B455933204C4F4E47205052455335
:10187000530D0A005B4B45595D204B455934204CB4
:101880004F4E472050524553530D0A005B4B45596C
:101890005D204552524F522050524553530D0A007D
:1018A0005B4B45595D20554E4B4E4F574E20564190
:1018B0004C55453A203078253032580D0A0000004A
:1018C00010B5044801F040FD4D2203490348FFF7DD
:1018D00015F810BD0D230008B8000020A800002056
:1018E0002DE9FC4100200190B3E05E48007830B162
:1018F000012812D0022832D003287DD152E09DF871
:101900000400552808D19DF80400574908700120AB
:1019100056490870534908709AE09DF80400AA28B7
:1019200009D19DF804005049487002204F490870C1
:101930004C49087012E09DF80400552809D19DF823
:101940000400494908700120484908704549087059
:1019500004E00020434908704449087078E09DF88D
:1019600004004349087008460078012804DB084653
:101970000078001D0B2805DD00203A4908703B491E
:10198000087065E03A480078374988700320374985
:10199000087037480078401C3649087003203149E8
:1019A000087055E09DF80410304802780078401C1B
:1019B0002E4B18702C4881542E480078401EC0B21F
:1019C0002C49087000283CD129480078001DC5B278
:1019D00027480078C01CC1B2234800F091F80646A1
:1019E000214923480078C01C0F5CBE4223D1084621
:1019F000C078062811D100E024E01D4800780328B3
:101A00000BDB084600798DF80000084640798DF818
:101A10000100684600F081F800BF002406E012488B
:101A2000015D15A0FFF746F8601CC4B2AC42F6DBBE
:101A300013A0FFF73FF800200A4908700B4908700F
:101A400000BF05E00020074908700849087000BF82
:101A500000BF01A90B48FEF757FF00283FF445AF30
:101A6000BDE8FC81900000200501002091000020CD
:101A700092000020930000202530327820000000E2
:101A80000A000000A800002010B500F089FC00F05A
:101A90007DFC10BD014600200B2909DB2A2907DC4B
:101AA000A1F10B02084B03EB8202B2F8400C09E0F3
:101AB000012907DB0A2905DC4A1E034B03EB8202DE
:101AC000B2F8040C70470000006000400B2809DBEE
:101AD0002A2807DCA0F10B02084B03EB8202A2F8D4
:101AE000401C09E0012807DB0A2805DC421E034BE5
:101AF00003EB8202A2F8041C704700000060004063
:101B000010B502460023002003E0145C6340441C2F
:101B1000E0B28842F9DB184610BD10B50446607883
:101B200018B1207800F0E8F802E0207800F0CEF854
:101B300010BD00000C48006820F080700A49086061
:101B40000846006840F0807008600848006820F08F
:101B50000100064908600846006840F0010008607E
:101B60000020486070470000FCED00E0001000E03D
:101B700070B50446012000F01DFC0649B0FBF1F0F1
:101B800044430548456800BF03484068401BA042E5
:101B9000FAD370BD40420F00001000E010B5FEF710
:101BA0009FFEFEF745FE10BD10B5FEF78BFE01F05F
:101BB0008BFB10BD10B5032140F6C41000F04AF9AC
:101BC00000F084F910BD000010B500BF02210448E8
:101BD000FFF76CFC0028F9D00148FFF7D3FC10BDDB
:101BE0000024014070B50025002407E0204600F0E5
:101BF000FFF9054605B103E0601CC4B2042CF5D31F
:101C000000BF284670BD38B5044600F079FD00904D
:101C1000009800F5E14000906846FEF765FB054638
:101C2000A88A00F26C702080288A401C6080287B83
:101C30002071287A60712879A0712878E07138BD08
:101C400010B500F015F800F00FF84FF4E13000F097
:101C5000E0F800F067F8FFF7A7FF00F069F8FFF77A
:101C6000A9FFFFF79BFF10BD10B500F0A1F910BD53
:101C700010B5002424E004EB4401134A32F821009B
:101C800000F0EEFC04EB44010F4A02EB81018B688B
:101C900004EB440102EB810101224868102100F0AD
:101CA00021F904EB4402084B03EB8202916804EB38
:101CB000440203EB8202506800F010F9601CC4B2C9
:101CC000032CD8D310BD00003436000810B50446EC
:101CD000032C00D910BD04EB4402064B03EB820237
:101CE000916804EB440203EB8202506800F0F6F8BE
:101CF00000BFEFE73436000810B50446032C00D9C6
:101D000010BD04EB4402064B03EB8202916804EB26
:101D1000440203EB8202506800F0E2F800BFEFE7F4
:101D20003436000810B5FEF7BDFD01F08DFA10BD88
:101D30001CB50120FFF7AEFE45F65A21884232D08D
:101D400040F21C7000F08CFC40F21B7000F088FC2C
:101D500000F0D2FAFFF798FE4FF4006000F0E8FBC5
:101D60004FF4006000F0F4FB4FF4807000F0A8FC2A
:101D700040F60F0000F074FC00F0F6FC00F0DAFC16
:101D800047F6FF7000F0E0FC00F0D4FC0E4903C9F8
:101D9000CDE90001684600F019F845F65A21012006
:101DA000FFF794FE1CBD40F21C7000F059FC40F29D
:101DB0001B7000F055FC00F09FFA00F0D5FC00F01D
:101DC000B9FC00BFEEE70000A036000830B58BB0CC
:101DD00004462C216846FEF722FA2088A0F26C7097
:101DE00005906088401E04902079039060790290ED
:101DF000A0790190E07900906846FEF7B5F90546B4
:101E0000A5F5E14500F096FC284600F083FC0BB0F8
:101E100030BD10B5044601F09DFA204601F0B0FA3D
:101E200010BD000010B500F049F802A0FEF742FE18
:101E300010BD00002D2D2D2DCEB9B9B72D2D2D2D76
:101E40000D0A000070B504460D46E0B201F0D4FA68
:101E5000204670BD30B502460B46164C002145F2B7
:101E60005550154D286000BF1348C06800F00101AF
:101E7000601E041E01D00029F6D109B1002030BD3A
:101E80000D4843600B4C00BF0B48C06800F00201D6
:101E9000601E041E01D00029F6D109B10020EEE732
:101EA000C2F30B00044DA8604AF6AA202860012066
:101EB000E5E70000FFFF0F00003000404AF6AA20CF
:101EC0000149086070470000003000404CF6CC40EB
:101ED00001490860704700000030004041617047D0
:101EE00001617047F0B5044616460025002201F056
:101EF0000F0501F0100747B1042E05D145F0030589
:101F0000E76B1F43E76300E0354300201EE0012735
:101F100087401F40C7B122684FEA800C0F2707FA9D
:101F20000CF7BA43870005FA07F73A43282904D18A
:101F3000012787401F40676105E0482903D1012739
:101F400087401F4027612260471CB8B20828DED3B3
:101F5000082022E0012787401F40E7B16268A0F116
:101F600008074FEA870C0F2707FA0CF7BA43A0F1CE
:101F70000807BF0005FA07F73A43282904D10127CB
:101F800087401F40676105E0482903D1012787404A
:101F90001F4027616260471CB8B21028DAD3F0BD39
:101FA00002469068084008B1012070470020FCE715
:101FB00010B5002417E004EB44010C4A32F821006C
:101FC00000F04EFB04EB4401084A02EB81018B68F0
:101FD00004EB440102EB8101022248684821FFF72B
:101FE00081FF601CC4B2042CE5D310BD5836000834
:101FF0002DE9F0410446042C02D3FF20BDE8F08116
:1020000004EB44027D4B03EB8202916804EB440233
:1020100003EB82025068FFF7C3FF08B9012000E01C
:102020000020074600F0E6FB05460E4604EB4400A0
:10203000734911F8300030B1012834D0022857D04C
:10204000032877D1B9E004EB44006D4901EBC000EF
:102050004078012818D104EB440001EBC001D1E91C
:1020600004012A1A66EB01004FF4967300219A1AB4
:10207000814109D2002004EB4401614A02EBC10115
:102080004870601CC0B2B9E767B104EB44005C491A
:1020900001EBC000C0E90256012004EB4401584A9C
:1020A00002F83100A6E0E7B104EB4400544901EB2B
:1020B000C001D1E902012B1A66EB010014229A1A21
:1020C00070F1000013D304EB44004D4901EBC00054
:1020D000C0E90256022004EB4401494A02F83100EB
:1020E00005E0002004EB4401454A02F8310081E09C
:1020F000E7BB002004EB4401414A02F8310004EB45
:102100004400114601EBC0004078401C04EB440140
:1021100002EBC101487004EB4400114601EBC00022
:102120004078012807D104EB440001EBC000C0E96E
:10213000045641E052E004EB4400314901EBC00099
:10214000D0E904106A1A66EB00004FF49673002180
:102150009A1A81410BD3002004EB4401284A02EB78
:10216000C101487004F15100C0B247E70EE0012000
:1021700004EB4401224A02EBC101487004EB440025
:10218000114601EBC000C0E9045615E004EB440021
:102190001B4901EBC001D1E902012A1A66EB0100DB
:1021A0004FF44871511A70F1000005D3032004EB7D
:1021B0004401134A02F831001CE077B9002004EB17
:1021C00044010F4A02F8310004EB440102EBC10163
:1021D000487004F18100C0B210E70BE0002004EB6E
:1021E0004401074A02F8310004EB440102EBC1014B
:1021F000487000BF00BF002000E70000583600080C
:10220000B001002000F0BCFB00F0EEFAFFF718FD73
:10221000FFF734FA03E000F0BBFBFFF7F3F9FAE74E
:102220002DE9F04103460D46164600240027A0463E
:102230002A48006800F4E060B0F5E06F03D100BF09
:102240004FF0040830E02548006800F4E060B0F585
:10225000C06F03D101274FF0030825E01F48006835
:1022600000F4E060B0F5A06F02D10227B8461BE091
:102270001A48006800F4E060B0F5806F03D10327CE
:102280004FF0010810E01548006800F4E060B0F578
:10229000407F03D104274FF0000805E04FF4A06011
:1022A00000F020F80227B846C7F1040005FA00F450
:1022B000C8F104010F20C8403040044324010848FD
:1022C000C45403F01F01012088405911890001F115
:1022D000E021C1F80001BDE8F08100000CED00E054
:1022E00000E400E002490143024A11607047000027
:1022F0000000FA050CED00E00348006840F480702F
:1023000001490860704700000070004010B50446A5
:1023100021460248FEF70EFB10BD0000A800002079
:10232000184B5968184B1940164BDA6A22F00052C4
:102330000C2820D2DFE800F0060708091F0C1F0D4B
:102340001516171800BF00BF00BF41EA803113E027
:1023500000BF20F004004FF0805343EA803319435C
:102360000AE000BF00BF00BF20F00C0041EA80314E
:1023700042F0005200E000BF00BF024B5960DA6239
:102380007047000000100240FF3FFFEF0348006A63
:1023900020F48030014908627047000000100240BC
:1023A0000348006A40F48030014908627047000029
:1023B000001002402DE9F04F8CB0074600200A9033
:1023C0004AA090E8004CC068CDE905BECDF810A049
:1023D00007900FF21C1ADAE9000ACDE9020A0FF29F
:1023E000101ADAE9000ACDE9000A44484068C0F34F
:1023F00081000B900B9820B1012804D002283FD116
:1024000003E03F4A3EE03E4A3CE03C48406800F47E
:10241000803CBCF5803F12D13848C06A00F080484B
:10242000B8F1000F01D1364B00E0364B334840681D
:1024300000F40039B9F5003F02D15B0800E0324BEF
:102440002E484068C0F383412C48406800F000608B
:1024500008B141F010012948406800F0804008B1FF
:1024600041F020010F2901D2891C06E00F2903D376
:102470003E2901D8491C00E03F2103FB01F201E0A5
:102480001F4A00BF00BF1D484068C0F3031504A8E1
:10249000465D22FA06F419484068C0F3022502A8F6
:1024A000465D24FA06F0099014484068C0F3C2253E
:1024B0001DF8056024FA06F0089037B1012F06D008
:1024C000022F06D0032F0AD106E00A9208E00A94F0
:1024D00006E009980A9003E008980A9000E000BF1F
:1024E00000BF0A980CB0BDE8F08F000000000000AB
:1024F0000000000001020304060708090010024062
:1025000000127A00006CDC0200093D000146074A17
:1025100002EB9110006801F01F0301229A40104065
:1025200008B1012070470020FCE7000000100240C5
:10253000064A02EB9011096800F01F0301229A403D
:102540001143024B03EB90121160704700100240E0
:10255000F0B50646002400270025B6F5006F20D010
:1025600005DC8EB3102E0BD0182E73D161E0B6F5BA
:10257000106F4CD0A6F54050103800286AD134E0D6
:1025800004E01120FFF7C2FF0546641C1DB94FF699
:10259000FF708442F5D11120FFF7B8FF00B1012789
:1025A00059E005E040F60100FFF7B0FF0546641C66
:1025B0001DB96FF07C408442F4D140F60100FFF772
:1025C000A5FF00B1012746E0FFE704E00120FFF787
:1025D0009DFF0546641C15B9B4F5A06FF6D1012026
:1025E000FFF794FF00B1012735E005E043F2110049
:1025F000FFF78CFF0546641C15B918488442F5D1D5
:1026000043F21100FFF782FF00B1012723E005E04C
:1026100040F60110FFF77AFF0546641C15B90F4814
:102620008442F5D140F60110FFF770FF00B1012799
:1026300011E004E01920FFF769FF0546641C15B995
:1026400006488442F6D11920FFF760FF00B1012748
:1026500001E0FFE700BF00BF3846F0BDFFFF0F00FD
:10266000064A02EB9011096800F01F0301229A400C
:102670001143024B03EB90121160704700100240AF
:10268000064A02EB9011096800F01F0301229A40EC
:102690009143024B03EB901211607047001002400F
:1026A000064A02EB9011096800F01F0301229A40CC
:1026B0001143024B03EB901211607047001002406F
:1026C000044A116A21F4407141EA0002014B1A6286
:1026D00070470000001002400348006840F01000FE
:1026E0000149086070470000042800400348006862
:1026F00020F01000014908607047000004280040E5
:10270000002003490868091F096840EA0140704732
:102710001C28004000B50246FFF7DEFF100C0449FC
:10272000086090B2091D0860FFF7E0FF00BD0000DF
:102730001828004000BF0348006800F0200000286F
:10274000F9D070470428004000B50246FFF7C4FFE7
:10275000C2F303400349086090B2091D0860FFF707
:10276000C5FF00BD082800400648006820F00800AA
:102770000449086000BF0348006800F00800002812
:10278000F9D070470428004000B585B003A8FFF7D2
:102790003AFA9DF813009DF812109DF81120CDE92A
:1027A000002102909DF81030BDF80E20BDF80C10ED
:1027B00002A0FEF77FF905B000BD000025642D25BD
:1027C0003032642D2530326420253032643A253091
:1027D00032643A253032640A000000000149086082
:1027E000704700000800002010B5FFF7A3F900F0C3
:1027F00007F810BD014908684968704700000020CB
:1028000070B50120FFF7D6FD4FF47A71B0FBF1F4FB
:10281000601EB0F1807F01D301201BE0601E4FF0ED
:10282000E021486148170F21002807DA0A07150E32
:102830000A4A00F00F031B1FD55403E00A07130ECA
:10284000074A135400BF00204FF0E02188610720A1
:102850000861002008B100BFFEE770BD18ED00E080
:1028600000E400E0002000213F4A126842F4803278
:102870003D4B1A6000BF401C3B4A126802F4003115
:1028800019B94FF6FF729042F5D1374A126802F437
:1028900000320AB900BFFEE7334AD26942F08052E3
:1028A000314BDA61314A126842F440422F4B1A60D0
:1028B0002D4A52682C4B5A601A4652685A601A4682
:1028C000526842F480625A601A46526822F44032DA
:1028D0005A601A46526842F440325A601A465268A8
:1028E000234B1A40204B5A601A465268214B1A4318
:1028F0001D4B5A601A46126842F080721A6000BF7F
:10290000194A126802F00072002AF9D0174A1268B8
:1029100042F48032154B1A6000BF144A526802F428
:102920008032002AF9D0114A126842F400320F4B6B
:102930001A6000BF0D4A526802F40032002AF9D032
:10294000094A526822F00302074B5A601A4652683D
:1029500042F002025A6000BF034A526802F00802C5
:10296000002AF9D0704700000010024000700040BB
:10297000FFFFC3B70000340810B5FFF773FF10BDA9
:1029800010B50248FFF72AFF10BD0000CD2900084E
:1029900010B5002415E00C4800EB4410007870B12D
:1029A0000020094901EB44110870074800EB44106E
:1029B000806920B1044901EB441188698047601C9B
:1029C000C4B2042CE7DB10BD1000002010B50020BD
:1029D0003DE0204901EB4012D2E9041200235940A6
:1029E0005A40114300D130E01A4901EB4011D1E9BE
:1029F00002210024624061400A430CD0154901EBDA
:102A00004011D1E90221521E61F10001114B03EB8B
:102A10004013C3E902210F4901EB4011D1E9022122
:102A20000024624061400A430ED10121094A02EBB1
:102A300040121170074901EB4011D1E90421054B07
:102A400003EB4013C3E9022100BF411CC8B20428B4
:102A5000BFDB10BD100000200246002031B101296B
:102A600006D0022906D0032908D105E0506B06E004
:102A7000906B04E0D06B02E0106C00E000BF00BF80
:102A8000704731B101290CD0022913D0032922D17A
:102A900018E0836923F00C03836183691343836126
:102AA0001AE0836923F440638361836943EA022364
:102AB000836111E0C36923F00C03C361C36913434D
:102AC000C36109E0C36923F44063C361C36943EA96
:102AD0000223C36100E000BF00BF704700210180F6
:102AE0000121418000218180C180704710B531B142
:102AF00001293FD002297DD003297CD1BFE0036AA0
:102B000023F001030362836923F003038361036AF3
:102B1000148823430362036A23F002030362036AF7
:102B20009488234303626A4B984202D0694B9842CF
:102B30001FD1036A23F004030362036A548823430A
:102B40000362036A23F008030362036AD488234301
:102B50000362436823F4807343604368148923430A
:102B60004360436823F400734360436854892343FC
:102B70004360ABE0036A23F010030362836923F42C
:102B800040738361036A148843EA04130362036A8F
:102B900023F020030362036A948843EA0413036268
:102BA0004B4B984202D04B4B984226D1036A23F0FC
:102BB00040030362036A548843EA04130362036A0E
:102BC00023F080030362036AD48843EA0413036298
:102BD000436823F4806343604368148943EA8403B1
:102BE0004360436823F4006343604368548943EAC5
:102BF000840301E002E068E0436067E0036A23F4D5
:102C000080730362C36923F00303C361036A1488FA
:102C100043EA04230362036A23F400730362036A32
:102C2000948843EA04230362294B984202D0294B3B
:102C3000984223D1036A23F480630362036A5488B1
:102C400043EA04230362036A23F400630362036A12
:102C5000D48843EA04230362436823F48053436027
:102C60004368148943EA04134360436823F4005320
:102C700043604368548943EA0413436026E0036ACF
:102C800023F480530362C36923F44073C361036A6E
:102C9000148843EA04330362036A23F40053036293
:102CA000036A948843EA04330362094B984202D0D2
:102CB000084B984208D1436823F48043436043683B
:102CC000148943EA8413436000E000BF00BF10BDD5
:102CD000002C01400034014031B101290CD00229FF
:102CE00013D0032922D118E0836923F07003836194
:102CF0008369134383611AE0836923F4E0438361AA
:102D0000836943EA0223836111E0C36923F07003FE
:102D1000C361C3691343C36109E0C36923F4E0439A
:102D2000C361C36943EA0223C36100E000BF00BF7F
:102D3000704731B1012906D0022906D0032908D1F4
:102D400005E0426306E0826304E0C26302E00264DD
:102D500000E000BF00BF704731B101290CD002294B
:102D600013D0032922D118E0836923F0080383617B
:102D70008369134383611AE0836923F400638361E9
:102D8000836943EA0223836111E0C36923F00803E6
:102D9000C361C3691343C36109E0C36923F40063DA
:102DA000C361C36943EA0223C36100E000BF00BFFF
:102DB00070470021018041808180C1800181418173
:102DC000704741627047000010B504463349601AED
:102DD0008C4244D00CDCB4F1804F1CD030482044ED
:102DE00010B3B0F5806F28D0B0F5006F52D12DE050
:102DF000B0F5806F3CD0B0F58E3F03D0B0F5923F78
:102E000048D13EE040F20B30FFF74AFC40F20B3075
:102E1000FFF736FC3FE04FF48060FFF741FC4FF4D2
:102E20008060FFF72DFC36E040F20140FFF738FCF0
:102E300040F20140FFF724FC2DE040F20240FFF792
:102E40002FFC40F20240FFF71BFC24E040F203405D
:102E5000FFF726FC40F20340FFF712FC1BE040F2B4
:102E60000440FFF71DFC40F20440FFF709FC12E0AC
:102E700040F20540FFF714FC40F20540FFF700FC6C
:102E800009E040F20D30FFF70BFC40F20D30FFF788
:102E9000F7FB00E000BF00BF10BD000000100040C5
:102EA00000FCFFBF016841F00101016070470000B4
:102EB0000A8882621D4A90420ED0B0F1804F0BD03A
:102EC0001B4A904208D01B4A904205D01A4A9042B1
:102ED00002D01A4A90420BD1026822F070020260BE
:102EE00002684B881A43026002688B881A430260AA
:102EF0008A68C262124A90420AD0124A904207D0AF
:102F0000026822F4407202600268CB881A430260B1
:102F1000064A904202D0094A904201D10A7B0263DC
:102F2000426942F00102426170470000002C0140FA
:102F30000004004000080040000C00400034014044
:102F4000001000400014004070B504460E461546BF
:102F500036B1012E26D0022E48D0032E7DD168E056
:102F6000206A20F001002062206A20F00A0020621E
:102F7000206A298808432062A06920F00300A0612C
:102F8000A06969880843A061A06920F0F000A061F1
:102F9000A069E98840EA0110A061206A40F00100C0
:102FA00020626DE0206A20F010002062206A20F08C
:102FB000A0002062206A298840EA01102062A069EE
:102FC00020F44070A061A069698840EA0120A061F6
:102FD000A06920F47040A061A069E98840EA01304E
:102FE000A061206A40F01000206249E0206A20F4CD
:102FF00080702062206A20F420602062206A298884
:1030000040EA01202062E06920F00300E061E0690D
:1030100069880843E061E06920F0F000E061E06960
:10302000E98840EA0110E061206A40F48070206283
:1030300026E0206A20F480502062206A20F40050AC
:103040002062206A298840EA01302062E06920F489
:103050004070E061E069698800E010E040EA01202A
:10306000E061E06920F47040E061E069E98840EAED
:103070000130E061206A40F48050206200E000BF2F
:1030800000BFAA8831462046FFF7FBFC70BD2DE942
:10309000F04104460E4615460027B846288808B970
:1030A000022700E000276888012802D14FF00208BB
:1030B00001E04FF00108002E4CD1206A20F0010001
:1030C0002062206A20F00A002062206A29880843D2
:1030D0002062A06920F00300A061A069698808430C
:1030E000A061A06920F0F000A061A069E98840EA31
:1030F0000110A061206A40F001002062AA8800212E
:103100002046FFF7BEFC206A20F010002062206AF3
:1031100020F0A0002062206A40EA07102062A06927
:1031200020F44070A061A06940EA0820A061A06975
:1031300020F47040A061A069E98840EA0130A061F4
:10314000206A40F010002062AA8801212046FFF783
:1031500098FC4CE0206A20F010002062206A20F0E9
:10316000A0002062206A298840EA01102062A0693C
:1031700020F44070A061A069698840EA0120A06144
:10318000A06920F47040A061A069E98840EA01309C
:10319000A061206A40F010002062AA880121204628
:1031A000FFF76FFC206A20F001002062206A20F007
:1031B0000A002062206A38432062A06920F00300E0
:1031C000A061A06940EA0800A061A06920F0F000B9
:1031D000A061A069E98840EA0110A061206A40F07E
:1031E00001002062AA8800212046FFF74AFCBDE8C2
:1031F000F081C2680A43C2607047CA4302617047E7
:103200000246D06800EA01031069084010B10BB112
:10321000012070470020FCE7012904D1426C42F4F0
:103220000042426403E0426C22F400424264704770
:1032300000210180418081804FF6FF718160002173
:10324000C18001737047000000B587B040F20B6089
:10325000FFF706FA1B48FFF7B7FD03A8FFF7E8FFE3
:103260007720ADF80C0040F2F310059003A9154843
:10327000FFF71EFE6846FFF79CFD0120ADF8000039
:103280000020ADF80400ADF808006A4600210D48A2
:10329000FFF72CFC602200210A48FFF71DFDFA22EF
:1032A00000210848FFF745FD082200210548FFF7E7
:1032B00053FD01210348FFF7AFFF0248FFF7F2FD7E
:1032C00007B000BD002C014000B587B04FF4E060AE
:1032D000FFF7C6F94FF08040FFF776FD03A8FFF730
:1032E000A7FF7720ADF80C004FF6FF70059003A9FB
:1032F0004FF08040FFF7DCFD01A8FFF7EFFB002057
:10330000ADF804000120ADF8060001AA00218007F5
:10331000FFF71AFE01AA00214FF08040FFF7B7FE29
:1033200002214807FFF769FF02214807FFF761FF05
:10333000002211461C20FEF773FF4FF08040FFF77C
:10334000B1FD07B000BD00000149086070470000F2
:103350009800002010B50949C888FFF781F907498E
:10336000CB68012288681821FEF7BCFD03490B6970
:10337000012288684821FEF7B5FD10BD8836000897
:1033800010B504461B498888FFF76AF9194908688F
:1033900000F096F817490868002100F043F9154934
:1033A0000868002100F01AF912490868002100F0AD
:1033B00027F910490868214600F030F80D490868DF
:1033C000082100F025F90B490868042100F00EF9E6
:1033D0000849086840F2053100F0CEF80549086850
:1033E00000F0B6F80349087D00221146FEF718FFE9
:1033F00010BD00008836000810B50446064908686C
:10340000214600F058F800BF03490868072100F082
:10341000A4F80028F8D010BD883600082DE9F04740
:1034200004460D460027B846B94600261D49601AD5
:103430008C421CD006DC1C48204470B1B0F5806F73
:103440001FD10FE0B0F5806F16D0B0F56C4F18D1DA
:103450000320FEF7AFFF074614E00220FEF7AAFFA5
:1034600007460FE00220FEF7A5FF07460AE002200C
:10347000FEF7A0FF074605E00220FEF79BFF074688
:1034800000E000BF00BF07EB5500B0FBF5F64FF6BC
:10349000F07006EA000806F00F0948EA0900A0608B
:1034A000BDE8F087004C004000BCFFBF0146486803
:1034B000C0F308007047C1F3080242607047000083
:1034C00010B504462049601A8C4228D006DC1F48FB
:1034D000204490B1B0F5806F33D117E0B0F5806F24
:1034E00026D0B0F56C4F2CD140F20E30FFF7D8F853
:1034F00040F20E30FFF7C4F824E040F21140FFF72D
:10350000CFF840F21140FFF7BBF81BE040F2124049
:10351000FFF7C6F840F21240FFF7B2F812E040F2AF
:103520001340FFF7BDF840F21340FFF7A9F809E098
:1035300040F21440FFF7B4F840F21440FFF7A0F84F
:1035400000E000BF00BF10BD004C004000BCFFBF4A
:10355000C16841F40051C160704710B5024602EBEA
:103560009110006801F01F040123A340184008B126
:10357000012010BD0020FCE710B500EB911212688D
:1035800001F01F040123A3401A4300EB91131A60BA
:1035900010BDC1F3044301229A40D24300EB915382
:1035A0001A60704770B5024600230024C1F38910E9
:1035B000105801F01F060125B54000EA050302EB93
:1035C00091500068C1F304460125B54000EA0504A6
:1035D00014B10BB1012070BD0020FCE7C26822F4D9
:1035E000C062C260C2680A43C2607047C26822F00B
:1035F0000402C260C26801F004031A43C26070474B
:10360000026922F44052026102690A430261704772
:10361000C26822F00802C260C26801F008031A43BF
:10362000C2607047C26822F48052C260C2680A4316
:10363000C26070470206000000080140000100005F
:1036400006060000001801404000000007060000C8
:10365000001C01404000000002060000000801407C
:1036600001000000080600000020014000200000CA
:10367000080600000020014000400000080600008D
:103680000020014000800000003801400E060206C4
:1036900000080140000200000004000025000000B6
:1036A000E70702001C173B321F1C1F1E1F1E1F1F97
:1036B0001E1F1E1F1F1D1F1E1F1E1F1F1E1F1E1F22
:1036C000E036000800000020A8000000D40A00082E
:1036D00088370008A800002098050000E40A0008C8
:1036E00000000000000000000000000000000000DA
:1036F0000000000000000000640000000000000066
:103700006400000000000000E11800080000000054
:1037100000000000000000000500000000000000A4
:1037200005000000000000008516000800000000F1
:103730000000000000000000640000000000000025
:10374000640000000000000089270008000000005D
:103750000000000000000000E8030000000000007E
:10376000E803000000000000251E00080000000023
:103770000000000000000000000000000000000049
:08378000000000000000000041
:0400000508000131BD
:00000001FF
