:020000040800F2
:1000000070040020450100084D0100084F01000860
:1000100051010008530100085501000800000000CC
:100020000000000000000000000000005701000870
:1000300059010008000000005B0100088D01000864
:100040005F0100085F0100085F0100085F01000810
:100050005F0100085F0100085F0100085F01000800
:100060005F0100085F0100085F0100085F010008F0
:100070005F0100085F0100085F0100085F010008E0
:100080005F0100085F0100085F0100085F010008D0
:100090005F0100085F0100085F0100085F010008C0
:1000A0005F0100085F0100085F0100085F010008B0
:1000B0005F0100085F0100085F0100085F010008A0
:1000C0005F0100085F0100085F0100085F01000890
:1000D0005F0100085F0100085F0100085F01000880
:1000E0005F0100085F0100085F0100085F01000870
:1000F0005F0100085F0100085F0100085F01000860
:100100005F0100085F0100085F0100085F0100084F
:100110005F0100085F0100085F0100085F0100083F
:100120005F0100085F0100085F0100085F0100082F
:10013000DFF80CD000F018F8004800471507000859
:10014000700400200648804706480047FEE7FEE7A7
:10015000FEE7FEE7FEE7FEE7FEE7FEE7FEE7FEE777
:10016000A501000831010008064C074D06E0E068D3
:1001700040F0010394E8070098471034AC42F6D3EE
:10018000FFF7DAFF940E0008B40E00080448036875
:1001900040685A1C40F1000001490A6048607047FD
:1001A0000000002008B52648006840F4700024498B
:1001B00008602448006840F001002249086000BF40
:1001C0002048006800F002000028F9D000BF1D4858
:1001D000406840F080001B4948600020009002E029
:1001E0000098401C009000985028F9D315484068AA
:1001F00040F09000134948600020009002E0009811
:10020000401C009000985028F9D300BF0D4840686A
:1002100020F003000B494860084600680A4908407E
:10022000084908604FF41F0088600846006820F401
:100230008020086000204860C86200F0C9FC08BD4A
:1002400088ED00E000100240FFFFF6FE014A02497F
:1002500000F013B8DD0300080C00002002E008C81D
:10026000121F08C1002AFAD170477047002001E030
:1002700001C1121F002AFBD170472DE9F04116463B
:100280000F460446002503E03946B047641C6D1C48
:1002900020780028F8D12846BDE8F0810C48006895
:1002A00020F080700A4908600846006840F08070BD
:1002B00008600848006820F0010006490860084608
:1002C000006840F0010008600020486070470000AE
:1002D000FCED00E0001000E070B50025002407E010
:1002E000204600F00DF9054605B103E0601CC4B2DC
:1002F000042CF5D300BF284670BD10B500F00CF8F3
:1003000000F005F84FF4E13000F060F810BD10B5D2
:1003100000F0D6F810BD000010B5002424E004EB76
:100320004401134A32F8210000F05AFB04EB440167
:100330000F4A02EB81018B6804EB440102EB81015F
:1003400001224868102100F055F804EB4402084BE4
:1003500003EB8202916804EB440203EB82025068D3
:1003600000F044F8601CC4B2032CD8D310BD0000C8
:100370002C0E000810B50446032C00D910BD04EB68
:100380004402064B03EB8202916804EB440203EB48
:100390008202506800F02AF800BFEFE72C0E000838
:1003A00010B50446032C00D910BD04EB4402064BE3
:1003B00003EB8202916804EB440203EB8202506873
:1003C00000F016F800BFEFE72C0E000810B5044649
:1003D00000F002FC204600F015FC10BD70B504468C
:1003E0000D46E0B200F038FC204670BD4161704718
:1003F00001617047F0B5044616460025002201F061
:100400000F0501F0100747B1042E05D145F0030593
:10041000E76B1F43E76300E0354300201EE0012740
:1004200087401F40C7B122684FEA800C0F2707FAA8
:100430000CF7BA43870005FA07F73A43282904D195
:10044000012787401F40676105E0482903D1012744
:1004500087401F4027612260471CB8B20828DED3BE
:10046000082022E0012787401F40E7B16268A0F121
:1004700008074FEA870C0F2707FA0CF7BA43A0F1D9
:100480000807BF0005FA07F73A43282904D10127D6
:1004900087401F40676105E0482903D10127874055
:1004A0001F4027616260471CB8B21028DAD3F0BD44
:1004B00002469068084008B1012070470020FCE720
:1004C00010B5002417E004EB44010C4A32F8210077
:1004D00000F086FA04EB4401084A02EB81018B68C4
:1004E00004EB440102EB8101022248684821FFF736
:1004F00081FF601CC4B2042CE5D310BD500E00086F
:100500002DE9F0410446042C02D3FF20BDE8F08120
:1005100004EB44027D4B03EB8202916804EB44023E
:1005200003EB82025068FFF7C3FF08B9012000E027
:100530000020074600F08AFA05460E4604EB440008
:10054000734911F8300030B1012834D0022857D057
:10055000032877D1B9E004EB44006D4901EBC000FA
:100560004078012818D104EB440001EBC001D1E927
:1005700004012A1A66EB01004FF4967300219A1ABF
:10058000814109D2002004EB4401614A02EBC10120
:100590004870601CC0B2B9E767B104EB44005C4925
:1005A00001EBC000C0E90256012004EB4401584AA7
:1005B00002F83100A6E0E7B104EB4400544901EB36
:1005C000C001D1E902012B1A66EB010014229A1A2C
:1005D00070F1000013D304EB44004D4901EBC0005F
:1005E000C0E90256022004EB4401494A02F83100F6
:1005F00005E0002004EB4401454A02F8310081E0A7
:10060000E7BB002004EB4401414A02F8310004EB4F
:100610004400114601EBC0004078401C04EB44014B
:1006200002EBC101487004EB4400114601EBC0002D
:100630004078012807D104EB440001EBC000C0E979
:10064000045641E052E004EB4400314901EBC000A4
:10065000D0E904106A1A66EB00004FF4967300218B
:100660009A1A81410BD3002004EB4401284A02EB83
:10067000C101487004F15100C0B247E70EE001200B
:1006800004EB4401224A02EBC101487004EB440030
:10069000114601EBC000C0E9045615E004EB44002C
:1006A0001B4901EBC001D1E902012A1A66EB0100E6
:1006B0004FF44871511A70F1000005D3032004EB88
:1006C0004401134A02F831001CE077B9002004EB22
:1006D00044010F4A02F8310004EB440102EBC1016E
:1006E000487004F18100C0B210E70BE0002004EB79
:1006F0004401074A02F8310004EB440102EBC10156
:10070000487000BF00BF002000E70000500E000846
:100710001000002000F094F9FFF7EFFD49A000F071
:10072000ADFA4CA0FFF792FD50A0FFF78FFD49A056
:10073000FFF78CFD85E0FFF7CFFD044604B980E0AC
:10074000532C54D00EDC042C5BD006DC012C1CD0C6
:10075000022C29D0032C71D145E0512C19D0522CF8
:100760006CD125E0832C3AD006DC542C5DD0812C52
:1007700007D0822C62D113E0842C4CD0FF2C5DD1A9
:100780005BE00020FFF70CFE59E00020FFF7F2FDD0
:1007900055E00020FFF704FE0120FFF701FE4EE0C8
:1007A0000120FFF7E7FD4AE00120FFF7F9FD46E0F1
:1007B0003448007880F0010032490870084600781B
:1007C00030B10020FFF7ECFD0120FFF7D3FD05E07D
:1007D0000020FFF7CFFD0120FFF7E2FD2FE0022010
:1007E000FFF7DEFD2BE00220FFF7C4FD27E000202D
:1007F000FFF7C0FD0120FFF7BDFD0220FFF7BAFDA6
:100800001DE00020FFF7CCFD0120FFF7C9FD02200D
:10081000FFF7C6FD13E00020FFF7ACFD0120FFF756
:10082000A9FD0220FFF7A6FD09E00120FFF7B8FDB2
:100830000220FFF79FFD02E000E000E000BF00BFE4
:1008400000BF78E7D2B6EEDABDE0CAC7D4FCC5AEC9
:100850000D0A00002A2A2A2A2A2A2A2A2A2A2A2A89
:100860002A2A2A2A2A2A2A0D0A0000002A2A2A2AA3
:10087000D2B6EEDABDE0CAC7D4FCC5AE2A2A2A0D2C
:100880000A000000080000202DE9F04F8CB0074658
:1008900000200A904AA090E8004CC068CDE905BE4F
:1008A000CDF810A007900FF21C1ADAE9000ACDE982
:1008B000020A0FF2101ADAE9000ACDE9000A4448E8
:1008C0004068C0F381000B900B9820B1012804D040
:1008D00002283FD103E03F4A3EE03E4A3CE03C482C
:1008E000406800F4803CBCF5803F12D13848C06AB3
:1008F00000F08048B8F1000F01D1364B00E0364BD4
:100900003348406800F40039B9F5003F02D15B0874
:1009100000E0324B2E484068C0F383412C484068C9
:1009200000F0006008B141F010012948406800F073
:10093000804008B141F020010F2901D2891C06E056
:100940000F2903D33E2901D8491C00E03F2103FBB6
:1009500001F201E01F4A00BF00BF1D484068C0F31C
:10096000031504A8465D22FA06F419484068C0F34E
:10097000022502A8465D24FA06F009901448406852
:10098000C0F3C2251DF8056024FA06F0089037B1BF
:10099000012F06D0022F06D0032F0AD106E00A92BB
:1009A00008E00A9406E009980A9003E008980A9083
:1009B00000E000BF00BF0A980CB0BDE8F08F000057
:1009C00000000000000000000102030406070809FF
:1009D0000010024000127A00006CDC0200093D00A9
:1009E000064A02EB9011096800F01F0301229A40A9
:1009F0001143024B03EB901211607047001002404C
:100A0000064A02EB9011096800F01F0301229A4088
:100A10009143024B03EB90121160704700100240AB
:100A2000064A02EB9011096800F01F0301229A4068
:100A30001143024B03EB901211607047001002400B
:100A400010B5FFF72BFC00F007F810BD014908684E
:100A5000496870470000002070B50120FFF714FFBF
:100A60004FF47A71B0FBF1F4601EB0F1807F01D3D6
:100A700001201BE0601E4FF0E021486148170F2164
:100A8000002807DA0A07150E0A4A00F00F031B1F99
:100A9000D55403E00A07130E074A135400BF002081
:100AA0004FF0E021886107200861002008B100BFF5
:100AB000FEE770BD18ED00E000E400E0002000213A
:100AC0003F4A126842F480323D4B1A6000BF401C1E
:100AD0003B4A126802F4003119B94FF6FF72904296
:100AE000F5D1374A126802F400320AB900BFFEE7B6
:100AF000334AD26942F08052314BDA61314A12688E
:100B000042F440422F4B1A602D4A52682C4B5A60D7
:100B10001A4652685A601A46526842F480625A6015
:100B20001A46526822F440325A601A46526842F419
:100B300040325A601A465268234B1A40204B5A6082
:100B40001A465268214B1A431D4B5A601A461268C6
:100B500042F080721A6000BF194A126802F00072F7
:100B6000002AF9D0174A126842F48032154B1A60F5
:100B700000BF144A526802F48032002AF9D0114AA8
:100B8000126842F400320F4B1A6000BF0D4A5268DF
:100B900002F40032002AF9D0094A526822F0030216
:100BA000074B5A601A46526842F002025A6000BF70
:100BB000034A526802F00802002AF9D07047000088
:100BC0000010024000700040FFFFC3B7000034086F
:100BD00010B5FFF773FF10BD10B50949C888FFF7BE
:100BE000FFFE0749CB68012288681821FFF702FC45
:100BF00003490B69012288684821FFF7FBFB10BD00
:100C0000800E000810B5044612498888FFF7E8FEF8
:100C10001049086800F08CF80E490868002100F0BF
:100C2000FDF80C490868002100F0DEF80949086861
:100C3000002100F0E1F807490868214600F02CF88F
:100C400004490868082100F0DFF80249086800F04C
:100C5000B7F810BD800E000810B5044606490868B4
:100C6000214600F061F800BF03490868072100F041
:100C7000ACF80028F8D010BD800E000810B504466E
:100C800004B910BD03E02078FFF7E6FF641C20786C
:100C90000028F8D100BFF4E72DE9F04704460D46DF
:100CA0000027B846B94600261D49601A8C421CD060
:100CB00006DC1C48204470B1B0F5806F1FD10FE0F6
:100CC000B0F5806F16D0B0F56C4F18D10320FFF748
:100CD000DBFD074614E00220FFF7D6FD07460FE0D4
:100CE0000220FFF7D1FD07460AE00220FFF7CCFD06
:100CF000074605E00220FFF7C7FD074600E000BFFA
:100D000000BF07EB5500B0FBF5F64FF6F07006EAB2
:100D1000000806F00F0948EA0900A060BDE8F08766
:100D2000004C004000BCFFBFC1F3080242607047A6
:100D300010B504462049601A8C4228D006DC1F48B2
:100D4000204490B1B0F5806F33D117E0B0F5806FDB
:100D500026D0B0F56C4F2CD140F20E30FFF760FE7C
:100D600040F20E30FFF74CFE24E040F21140FFF756
:100D700057FE40F21140FFF743FE1BE040F21240E5
:100D8000FFF74EFE40F21240FFF73AFE12E040F24B
:100D90001340FFF745FE40F21340FFF731FE09E034
:100DA00040F21440FFF73CFE40F21440FFF728FEEB
:100DB00000E000BF00BF10BD004C004000BCFFBF02
:100DC000C16841F40051C160704710B5024602EBA2
:100DD0009110006801F01F040123A340184008B1DE
:100DE000012010BD0020FCE7C26822F4C062C2608E
:100DF000C2680A43C2607047026922F4405202612D
:100E000002690A4302617047C26822F00802C260A8
:100E1000C26801F008031A43C2607047C26822F436
:100E20008052C260C2680A43C26070470206000076
:100E30000008014000010000060600000018014003
:100E40004000000007060000001C014040000000B8
:100E50000206000000080140010000000806000032
:100E60000020014000200000080600000020014092
:100E70000040000008060000002001400080000043
:100E8000003801400E060206000801400002000082
:100E900000040000B40E0008000000201000000054
:100EA0005C020008C40E000810000020600400006E
:100EB0006C020008000000000000000000000000BC
:040EC000000000002E
:0400000508000131BD
:00000001FF
