:020000040800F2
:1000000028040020450100084D0100084F010008A8
:1000100051010008530100085501000800000000CC
:100020000000000000000000000000005701000870
:1000300059010008000000005B0100088D01000864
:100040005F0100085F0100085F0100085F01000810
:100050005F0100085F0100085F0100085F01000800
:100060005F0100085F0100085F0100085F010008F0
:100070005F0100085F0100085F0100085F010008E0
:100080005F0100085F0100085F0100085F010008D0
:100090005F0100085F0100085F0100085F010008C0
:1000A0005F0100085F0100085F0100085F010008B0
:1000B0005F0100085F0100085F0100085F010008A0
:1000C0005F0100085F0100085F0100085F01000890
:1000D0005F0100084D0200085F0100085F01000891
:1000E0005F0100085F0100085F0100085F01000870
:1000F0005F0100085F0100085F0100085F01000860
:100100005F0100085F0100085F0100085F0100084F
:100110005F0100085F0100085F0100085F0100083F
:100120005F0100085F0100085F0100085F0100082F
:10013000DFF80CD000F018F800480047210800084C
:10014000280400200648804706480047FEE7FEE7EF
:10015000FEE7FEE7FEE7FEE7FEE7FEE7FEE7FEE777
:10016000A501000831010008064C074D06E0E068D3
:1001700040F0010394E8070098471034AC42F6D3EE
:10018000FFF7DAFF98100008B81000080448036869
:1001900040685A1C40F1000001490A6048607047FD
:1001A0000000002008B52648006840F4700024498B
:1001B00008602448006840F001002249086000BF40
:1001C0002048006800F002000028F9D000BF1D4858
:1001D000406840F080001B4948600020009002E029
:1001E0000098401C009000985028F9D315484068AA
:1001F00040F09000134948600020009002E0009811
:10020000401C009000985028F9D300BF0D4840686A
:1002100020F003000B494860084600680A4908407E
:10022000084908604FF41F0088600846006820F401
:100230008020086000204860C86200F02FFD08BDE3
:1002400088ED00E000100240FFFFF6FE10B51649F1
:100250000868164900F09EFE20B31349086800F0B4
:1002600013FE11490868114900F08BFE0E4A917F78
:10027000906900F0A0F9C0F11400072802D1012014
:100280000B490870084A917F906900F073F8064A9C
:10029000917F9069142200F07BF9034A917F906965
:1002A00000F081F810BD000078100008040304007D
:1002B00008000020014A024900F013B80D070008A9
:1002C0000C00002002E008C8121F08C1002AFAD161
:1002D00070477047002001E001C1121F002AFBD1C6
:1002E00070472DE9F04116460F460446002503E00D
:1002F0003946B047641C6D1C20780028F8D1284688
:10030000BDE8F08110B502460023002003E0145C34
:100310006340441CE0B28842F9DB184610BD10B5BA
:100320000446607818B1207800F0A8F902E020783F
:1003300000F08EF910BD00000C48006820F08070BD
:100340000A4908600846006840F080700860084864
:10035000006820F00100064908600846006840F087
:10036000010008600020486070470000FCED00E0DC
:10037000001000E070B505460C462146284600F006
:10038000FBF808B900BFFEE704EB8400810005F12B
:100390000800405820F0010104EB8400820005F1C0
:1003A0000800815070BD70B505460C4621462846B0
:1003B00000F0E2F808B900BFFEE704EB840081001A
:1003C00005F10800405840F0010104EB8400820070
:1003D00005F10800815070BD70B504460D462946F0
:1003E000204600F0C9F808B900BFFEE705EB85001C
:1003F000810004F10800405820F0010105EB850060
:10040000820004F108008150002105EB8500820084
:1004100004F10800815005EB8500820004F10C0016
:10042000815005EB8500820004F11000815005EB3E
:100430008500820004F1140081506068AA000F2139
:1004400091400843606070BD2DE9F04104460D46BF
:1004500016462946204600F08FF808B900BFFEE78F
:1004600005EB8500820004F110003168815005EB36
:100470008500820004F11400B1688150308A81B295
:1004800005EB8500820004F10C00815005EB85002E
:10049000810004F10800475827F47C57F168706820
:1004A000084371690843074305EB8500810004F1A7
:1004B00008004750307E01280ED105EB85008100F1
:1004C00004F10800405840F0400105EB850082002F
:1004D00004F1080081500DE005EB8500810004F176
:1004E0000800405820F0400105EB8500820004F12F
:1004F00008008150707E01280ED105EB8500810037
:1005000004F10800405840F0800105EB85008200AE
:1005100004F1080081500DE005EB8500810004F135
:100520000800405820F0800105EB8500820004F1AE
:1005300008008150B07E70B905EB8500810004F1A0
:100540000800405820F0100105EB8500820004F1FE
:10055000080081500DE005EB8500810004F10800E2
:10056000405840F0100105EB8500820004F10800BE
:100570008150BDE8F081000002460120034B9A4201
:1005800002D1042900DD0020704700000004024071
:1005900070B506460C46154621463046FFF7ECFF7F
:1005A00008B900BFFEE7A9B204EB8400820006F19F
:1005B0000C00815070BD70B505460C46214628469A
:1005C000FFF7DAFF08B900BFFEE704EB8400810003
:1005D00005F10C00405870BD10B500F00BF800F0AC
:1005E00005F84FF4E13000F05FF810BD10B500F0F1
:1005F000F7F810BD10B5002424E004EB4401134AC1
:1006000032F8210000F058FA04EB44010F4A02EBE3
:1006100081018B6804EB440102EB810101224868EF
:10062000102100F07FF804EB4402084B03EB820238
:10063000916804EB440203EB8202506800F06EF80C
:10064000601CC4B2032CD8D310BD000024100008D5
:1006500010B50446032C00D910BD04EB4402064B30
:1006600003EB8202916804EB440203EB82025068C0
:1006700000F054F800BFEFE72410000810B504465E
:10068000032C00D910BD04EB4402064B03EB82029D
:10069000916804EB440203EB8202506800F040F8DA
:1006A00000BFEFE72410000810B5044600F032FB4D
:1006B000204600F045FB00F0F5FA10BD10B51148DA
:1006C000007800B910BD00200E4908700E4800786F
:1006D000552803D10C484078AA2800D0F2E706211B
:1006E0000948FFF70FFE08498979884200D0E9E7F9
:1006F0000548C078062803D10348001DFFF70FFE08
:1007000000BFDFE7080000201000002070B504469D
:100710000D46E0B200F050FB204670BD41617047CD
:1007200001617047F0B5044616460025002201F02D
:100730000F0501F0100747B1042E05D145F0030560
:10074000E76B1F43E76300E0354300201EE001270D
:1007500087401F40C7B122684FEA800C0F2707FA75
:100760000CF7BA43870005FA07F73A43282904D162
:10077000012787401F40676105E0482903D1012711
:1007800087401F4027612260471CB8B20828DED38B
:10079000082022E0012787401F40E7B16268A0F1EE
:1007A00008074FEA870C0F2707FA0CF7BA43A0F1A6
:1007B0000807BF0005FA07F73A43282904D10127A3
:1007C00087401F40676105E0482903D10127874022
:1007D0001F4027616260471CB8B21028DAD3F0BD11
:1007E00010B5002417E004EB44010C4A32F8210054
:1007F00000F062F904EB4401084A02EB81018B68C6
:1008000004EB440102EB8101022248684821FFF712
:1008100089FF601CC4B2042CE5D310BD4810000849
:1008200000F07AF9FFF7D8FE07A000F0D7FA0AA087
:10083000FFF740FD0EA0FFF73DFD07A0FFF73AFDD3
:1008400001E0FFF73BFFFCE7D2B6EEDABDE0CAC736
:10085000D4FCC5AE0D0A00002A2A2A2A2A2A2A2AEE
:100860002A2A2A2A2A2A2A2A2A2A2A0D0A000000A3
:100870002A2A2A2AD2B6EEDABDE0CAC7D4FCC5AE0F
:100880002A2A2A0D0A0000002DE9F04103460D46F0
:10089000164600240027A0462A48006800F4E060BD
:1008A000B0F5E06F03D100BF4FF0040830E02548F9
:1008B000006800F4E060B0F5C06F03D101274FF08D
:1008C000030825E01F48006800F4E060B0F5A06F61
:1008D00002D10227B8461BE01A48006800F4E06025
:1008E000B0F5806F03D103274FF0010810E01548E1
:1008F000006800F4E060B0F5407F03D104274FF0BA
:10090000000805E04FF4A06000F020F80227B84688
:10091000C7F1040005FA00F4C8F104010F20C84033
:100920003040044324010848C45403F01F0101204F
:1009300088405911890001F1E021C1F80001BDE8AA
:10094000F08100000CED00E000E400E0024901430A
:10095000024A1160704700000000FA050CED00E04B
:100960002DE9F04F8CB0074600200A904AA090E88D
:10097000004CC068CDE905BECDF810A007900FF27D
:100980001C1ADAE9000ACDE9020A0FF2101ADAE9B4
:10099000000ACDE9000A44484068C0F381000B908A
:1009A0000B9820B1012804D002283FD103E03F4A30
:1009B0003EE03E4A3CE03C48406800F4803CBCF5E8
:1009C000803F12D13848C06A00F08048B8F1000F6B
:1009D00001D1364B00E0364B3348406800F4003913
:1009E000B9F5003F02D15B0800E0324B2E48406869
:1009F000C0F383412C48406800F0006008B141F02A
:100A000010012948406800F0804008B141F0200101
:100A10000F2901D2891C06E00F2903D33E2901D8F2
:100A2000491C00E03F2103FB01F201E01F4A00BF27
:100A300000BF1D484068C0F3031504A8465D22FAB4
:100A400006F419484068C0F3022502A8465D24FA5E
:100A500006F0099014484068C0F3C2251DF80560EF
:100A600024FA06F0089037B1012F06D0022F06D0E5
:100A7000032F0AD106E00A9208E00A9406E00998DA
:100A80000A9003E008980A9000E000BF00BF0A98AF
:100A90000CB0BDE8F08F0000000000000000000076
:100AA00001020304060708090010024000127A0040
:100AB000006CDC0200093D00064A02EB9011096857
:100AC00000F01F0301229A401143024B03EB9012E6
:100AD0001160704700100240064A02EB901109684D
:100AE00000F01F0301229A409143024B03EB901246
:100AF0001160704700100240064A02EB901109682D
:100B000000F01F0301229A401143024B03EB9012A5
:100B1000116070470010024010B5FFF70DFC00F0A7
:100B200001F810BD70B50120FFF71AFF4FF47A717C
:100B3000B0FBF1F4601EB0F1807F01D301201BE017
:100B4000601E4FF0E021486148170F21002807DAA6
:100B50000A07150E0A4A00F00F031B1FD55403E0C5
:100B60000A07130E074A135400BF00204FF0E0217C
:100B7000886107200861002008B100BFFEE770BD52
:100B800018ED00E000E400E0002000213F4A126878
:100B900042F480323D4B1A6000BF401C3B4A126851
:100BA00002F4003119B94FF6FF729042F5D1374A7D
:100BB000126802F400320AB900BFFEE7334AD26974
:100BC00042F08052314BDA61314A126842F44042BD
:100BD0002F4B1A602D4A52682C4B5A601A465268A5
:100BE0005A601A46526842F480625A601A46526845
:100BF00022F440325A601A46526842F440325A6037
:100C00001A465268234B1A40204B5A601A465268C3
:100C1000214B1A431D4B5A601A46126842F08072EB
:100C20001A6000BF194A126802F00072002AF9D057
:100C3000174A126842F48032154B1A6000BF144AFA
:100C4000526802F48032002AF9D0114A126842F444
:100C500000320F4B1A6000BF0D4A526802F4003296
:100C6000002AF9D0094A526822F00302074B5A6061
:100C70001A46526842F002025A6000BF034A5268A4
:100C800002F00802002AF9D070470000001002406C
:100C900000700040FFFFC3B70000340810B5FFF735
:100CA00073FF10BD00B587B01749888BFFF704FFAD
:100CB000154A917F9069FFF78FFB00208DF81A008D
:100CC0001248009000208DF8180001901048029002
:100CD00001208DF8190000200390142004904FF497
:100CE00000500590084A917F90696A46FFF7ACFB77
:100CF00005490868402100F019F9034A917F90697D
:100D0000FFF751FB07B000BD781000080438014020
:100D10001000002010B50949C888FFF7CDFE07492B
:100D2000CB68012288681821FFF7FCFC03490B6996
:100D3000012288684821FFF7F5FC10BD78100008F3
:100D400010B504461B498888FFF7B6FE19490868A4
:100D500000F0A4F817490868002100F05BF9154974
:100D60000868002100F032F912490868002100F0FB
:100D70003FF910490868214600F03EF80D4908681F
:100D8000082100F03DF90B490868042100F026F91C
:100D9000084908684FF4417100F0E6F80549087DFC
:100DA00000221146FFF770FD0249086800F0C8F8FC
:100DB00010BD00007810000810B504460649086808
:100DC000214600F066F800BF03490868072100F0DB
:100DD000BCF80028F8D010BD7810000810B5044603
:100DE00004B910BD03E02078FFF7E6FF641C20780B
:100DF0000028F8D100BFF4E72DE9F04704460D467E
:100E00000027B846B94600261D49601A8C421CD0FE
:100E100006DC1C48204470B1B0F5806F1FD10FE094
:100E2000B0F5806F16D0B0F56C4F18D10320FFF7E6
:100E300097FD074614E00220FFF792FD07460FE0FA
:100E40000220FFF78DFD07460AE00220FFF788FD2C
:100E5000074605E00220FFF783FD074600E000BFDC
:100E600000BF07EB5500B0FBF5F64FF6F07006EA51
:100E7000000806F00F0948EA0900A060BDE8F08705
:100E8000004C004000BCFFBF01464868C0F30800AA
:100E90007047C1F3080242607047000010B5044675
:100EA0002049601A8C4228D006DC1F48204490B1AB
:100EB000B0F5806F33D117E0B0F5806F26D0B0F574
:100EC0006C4F2CD140F20E30FFF716FE40F20E3080
:100ED000FFF702FE24E040F21140FFF70DFE40F262
:100EE0001140FFF7F9FD1BE040F21240FFF704FE4E
:100EF00040F21240FFF7F0FD12E040F21340FFF71E
:100F0000FBFD40F21340FFF7E7FD09E040F214401B
:100F1000FFF7F2FD40F21440FFF7DEFD00E000BFF6
:100F200000BF10BD004C004000BCFFBF426922F072
:100F300040024261426901F040031A434261704736
:100F4000C16841F40051C160704710B5024602EB20
:100F50009110006801F01F040123A340184008B15C
:100F6000012010BD0020FCE710B500EB91121268C3
:100F700001F01F040123A3401A4300EB91131A60F0
:100F800010BDC1F3044301229A40D24300EB9153B8
:100F90001A60704770B5024600230024C1F389101F
:100FA000105801F01F060125B54000EA050302EBC9
:100FB00091500068C1F304460125B54000EA0504DC
:100FC00014B10BB1012070BD0020FCE7C26822F40F
:100FD000C062C260C2680A43C2607047C26822F041
:100FE0000402C260C26801F004031A43C260704781
:100FF000026922F44052026102690A4302617047A9
:10100000C26822F00802C260C26801F008031A43F5
:10101000C2607047C26822F48052C260C2680A434C
:10102000C260704702060000000801400001000095
:1010300006060000001801404000000007060000FE
:10104000001C0140400000000206000000080140B2
:101050000100000008060000002001400020000000
:1010600008060000002001400040000008060000C3
:101070000020014000800000003801400E060206FA
:1010800000080140000200000004000025000000EC
:101090000000024000050400B81000080000002015
:1010A00010000000C4020008C81000081000002052
:1010B00018040000D4020008000000000000000036
:0810C000000000000000000028
:0400000508000131BD
:00000001FF
